:020000040800F2
:1000000000800120ED0400083D0500083D050008C2
:100010003D0500083D0500083D0500080000000002
:100020000000000000000000000000003D05000886
:100030003D050008000000003D0500083D050008E2
:100040003D0500083D0500083D0500083D05000888
:100050003D0500083D0500083D0500083D05000878
:100060003D0500083D0500083D0500083D05000868
:100070003D0500083D0500083D0500083D05000858
:100080003D0500083D0500083D0500080000000092
:100090000000000000000000000000003D05000816
:1000A0003D0500083D0500083D0500083D05000828
:1000B0003D0500083D0500083D0500083D05000818
:1000C0003D0500083D0500083D0500083D05000808
:1000D0003D0500083D0500083D0500080000000042
:1000E0003D0500083D0500083D0500080000000032
:1000F0000000000000000000000000003D050008B6
:10010000000000003D0500083D0500083D05000811
:1001100000000000000000000000000000000000DF
:100120003D0500083D0500083D0500083D050008A7
:100130003D05000800000000000000000000000075
:100140000000000000000000000000003D05000865
:100150003D0500083D0500083D0500083D05000877
:100160003D0500083D0500080000000000000000FB
:10017000000000000000000000000000000000007F
:10018000000000003D050008000000000000000025
:040190003D05000821
:100194000348044B834202D0034B03B11847704712
:1001A4000400002004000020000000000548064B65
:1001B4001B1AD90F01EBA301491002D0034B03B161
:1001C40018477047040000200400002000000000CD
:1001D40010B5064C237843B9FFF7DAFF044B13B18B
:1001E4000448AFF300800123237010BD04000020F5
:1001F400000000004005000808B5044B1BB1044989
:100204000448AFF30080BDE80840CFE700000000D9
:10021400080000204005000870B50F4B0F4DAB429D
:10022400A3EB050607D0B610002455F8043B0134AF
:100234009847A642F9D800F081F9094D094B5E1B95
:10024400AB424FEAA60606D0002455F8043B01341D
:100254009847A642F9D870BD6805000868050008EB
:10026400680500086C0500080E4B1A685B6802F10B
:100274006041B1F5C03F0CD803F1774303F57F0328
:10028400B3F5E02F08D2013A12F1030F07D800208A
:1002940070476FF0010070476FF0010070474FF036
:1002A400FF3070470000010808B572B6044B1968A6
:1002B4005A6881F3088803498B6062B69047FEE769
:1002C4000000010800ED00E0014B20229A61FEE7E6
:1002D4000000024008B5134A136843F00103136099
:1002E400104B1B6813F0020FFAD00E4B00219960DB
:1002F4001A6822F0847222F480321A601A6822F496
:1003040080221A609A6822F0F0029A609A6822F4B5
:10031400E0529A609A6822F460429A60D96000F0D0
:1003240093F808BD00380240104A136B43F00103F0
:1003340013630F4B1A6822F440621A601A6842F47D
:1003440080621A605A6822F020025A609A6822F485
:1003540040629A609A6842F400629A60DA6822F411
:100364004062DA604FF400129A617047003802402C
:1003740000000240064B5B6913F0200F04D0044BCD
:100384004FF400129A617047014B20229A61704722
:100394000000024082B04FF4C86303FB00F00190F8
:1003A4000023009303E000BF009B01330093009AF5
:1003B400019B9A42F7D302B07047000008B5FFF7DB
:1003C40089FFFFF7B1FFFFF74FFF98B90A4B4FF4CE
:1003D4007A721A6008E0FFF7CDFF6420FFF7DAFFB6
:1003E400054A1368643B1360034B1B68002BF2D16E
:1003F400FFF75AFFFFF768FF200000200F49D1F8EC
:10040400883043F47003C1F888300D4B1A6842F009
:1004140001021A60002098601A6822F0847222F4A3
:1004240080321A60074A5A601A6822F480221A60DD
:10043400D8604FF000638B60704700BF00ED00E0B0
:100444000038024010300024224B9B6803F00C0358
:10045400042B11D0082B13D0002B37D11E4B1F4A6D
:100464001A601C4B9B68C3F303131D4AD15C1A4AE0
:100474001368CB4013607047174B1A4A1A60F0E7B1
:10048400144B59685A6802F03F0211F4800F13D0DC
:10049400144BB3FBF2F30F4A5268C2F3881202FB07
:1004A40003F30C4A5268C2F3014201325200B3FB17
:1004B400F2F3094A1360D4E7084BB3FBF2F3054A9D
:1004C4005268C2F3881202FB03F3EAE7024B034AC1
:1004D4001A60C6E700380240000000200024F4003F
:1004E4005805000840787D01DFF834D0FFF786FF17
:1004F4000C480D490D4A002302E0D458C45004337B
:10050400C4188C42F9D30A4A0A4C002301E0136050
:100514000432A242FBD3FFF77FFEFFF74FFF704781
:100524000080012000000020040000207005000865
:100534000400002024000020FEE70000F8B500BFFE
:10054400F8BC08BC9E467047F8B500BFF8BC08BCB0
:040554009E46704708
:10055800000000000000000001020304060708096B
:04056800FD01000889
:04056C00D5010008AD
:040570000024F4006F
:04000005080004EDFE
:00000001FF
