:020000040801F1
:1000000000800120450401089504010895040108B9
:1000100095040108950401089504010800000000FA
:10002000000000000000000000000000950401082E
:1000300095040108000000009504010895040108DA
:100040009504010895040108950401089504010828
:100050009504010895040108950401089504010818
:100060009504010895040108950401089504010808
:1000700095040108950401089504010895040108F8
:10008000950401089504010895040108000000008A
:1000900000000000000000000000000095040108BE
:1000A00095040108950401089504010895040108C8
:1000B00095040108950401089504010895040108B8
:1000C00095040108950401089504010895040108A8
:1000D000950401089504010895040108000000003A
:1000E000950401089504010895040108000000002A
:1000F000000000000000000000000000950401085E
:100100000000000095040108950401089504010809
:1001100000000000000000000000000000000000DF
:100120009504010895040108950401089504010847
:10013000950401080000000000000000000000001D
:10014000000000000000000000000000950401080D
:100150009504010895040108950401089504010817
:10016000950401089504010800000000000000004B
:10017000000000000000000000000000000000007F
:1001800000000000950401080000000000000000CD
:0401900095040108C9
:100194000348044B834202D0034B03B11847704712
:1001A4000400002004000020000000000548064B65
:1001B4001B1AD90F01EBA301491002D0034B03B161
:1001C40018477047040000200400002000000000CD
:1001D40010B5064C237843B9FFF7DAFF044B13B18B
:1001E4000448AFF300800123237010BD04000020F5
:1001F400000000009804010808B5044B1BB1044931
:100204000448AFF30080BDE80840CFE700000000D9
:10021400080000209804010870B50F4B0F4DAB4245
:10022400A3EB050607D0B610002455F8043B0134AF
:100234009847A642F9D800F02DF9094D094B5E1BE9
:10024400AB424FEAA60606D0002455F8043B01341D
:100254009847A642F9D870BDC0040108C00401083B
:10026400C0040108C404010808B5094A136843F02E
:1002740001031360064B1B6813F0020FFAD0044A03
:10028400536823F48003536000F08AF808BD00BF6C
:1002940000380240104A136B43F0010313630F4B01
:1002A4001A6822F440621A601A6842F480621A6082
:1002B4005A6822F020025A609A6822F440629A60D6
:1002C4009A6842F400629A60DA6822F44062DA6062
:1002D4004FF400129A617047003802400000024057
:1002E400064B5B6913F0200F04D0044B4FF400124B
:1002F4009A617047014B20229A61704700000240C6
:1003040082B04FF4C86303FB00F001900023009314
:1003140003E000BF009B01330093009A019B9A42C3
:10032400F7D302B07047000008B572B6074B084A0D
:100334009A6062B6FFF798FFFFF7ACFFFFF7D0FFB4
:100344004FF4FA70FFF7DCFFF8E700BF00ED00E0C0
:10035400000001080F49D1F8883043F47003C1F854
:1003640088300D4B1A6842F001021A600020986030
:100374001A6822F0847222F480321A60074A5A60A2
:100384001A6822F480221A60D8604FF000638B60F0
:10039400704700BF00ED00E0003802401030002438
:1003A400224B9B6803F00C03042B11D0082B13D0B1
:1003B400002B37D11E4B1F4A1A601C4B9B68C3F39A
:1003C40003131D4AD15C1A4A1368CB40136070476B
:1003D400174B1A4A1A60F0E7144B59685A6802F02E
:1003E4003F0211F4800F13D0144BB3FBF2F30F4A06
:1003F4005268C2F3881202FB03F30C4A5268C2F338
:10040400014201325200B3FBF2F3094A1360D4E70C
:10041400084BB3FBF2F3054A5268C2F3881202FB9D
:1004240003F3EAE7024B034A1A60C6E700380240C6
:10043400000000200024F400B004010840787D018D
:10044400DFF834D0FFF786FF0C480D490D4A00232E
:1004540002E0D458C4500433C4188C42F9D30A4A75
:100464000A4C002301E013600432A242FBD3FFF7DD
:10047400D3FEFFF759FF70470080012000000020E1
:1004840004000020C804010804000020200000200B
:10049400FEE70000F8B500BFF8BC08BC9E467047F4
:0C04A400F8B500BFF8BC08BC9E467047CD
:1004B0000000000000000000010203040607080914
:0404C000FD01010831
:0404C400D501010855
:0404C8000024F40018
:0400000508010445A5
:00000001FF
