:020000040800F2
:10000000800700200D0300081D550008AD440008BE
:100010008D540008C516000841600008000000006B
:1000200000000000000000000000000091550008E2
:10003000C9160008000000008D550008E9550008A9
:1000400027030008270300082703000827030008E8
:1000500027030008270300082703000827030008D8
:1000600027030008270300082703000827030008C8
:1000700027030008270300082703000827030008B8
:1000800027030008270300082703000800000000DA
:10009000000000000000000000000000270300082E
:1000A0002703000827030008270300082703000888
:1000B0002703000827030008270300082703000878
:1000C0002703000827030008270300082703000868
:1000D0002703000831600008270300080000000023
:1000E000270300082703000827030008000000007A
:1000F00000000000000000000000000027030008CE
:100100000000000027030008270300082703000859
:1001100000000000000000000000000000000000DF
:100120002703000827030008270300082703000807
:10013000270300080000000000000000000000008D
:10014000000000000000000000000000270300087D
:1001500027030008270300082703000827030008D7
:10016000270300082703000800000000000000002B
:10017000000000000000000000000000000000007F
:10018000000000002703000800000000000000003D
:100190002703000800F002F800F0A8F814A696E87B
:1001A000000CB244B344DA4501D100F09FF8BAE83C
:1001B0000F000FA696E83000A5EB040504EB060738
:1001C000AAEB0704A7F101074FEA15154FEA34140B
:1001D000A4F10104AC4201D300F088F813F0010F40
:1001E00018BFFB1A43F0010300F001F8DBE71847E2
:1001F000846A0000A46A0000103A24BF78C878C15D
:10020000FAD8520724BF30C830C144BF04680C601C
:1002100070470000704700000023002400250026DE
:10022000103A28BF78C1FBD8520728BF30C148BF59
:100230000B6070476E2900F04382702900F08583BF
:10024000662906F05C84652906F05984672906F062
:100250005684612906F0558403681B0A28BF41F0C3
:100260008001692900F0F081642900F0ED81752991
:1002700000F0EA816F2900F01383782900F05183A0
:10028000E92900F0AD82E42900F0AA82F52900F006
:10029000A782EF2900F01083F82900F0508303684B
:1002A000DB0928BF41F08001632901F083807329B5
:1002B00001F08880E32901F09380F32901F0988010
:1002C000002070471FB506F00DFC01F0E7F80400B0
:1002D0000020002106F0F0FB401C6060002000219F
:1002E00006F0D4FBE0601FBD10B510BD01F0A8F80A
:1002F0001146FFF7E7FF05F005FF01F085F903B4AC
:10030000FFF7F2FF03BC01F0CDF900000948804778
:1003100009480047FEE7FEE7FEE7FEE7FEE7FEE7E7
:10032000FEE7FEE7FEE7FEE704480549054A064BFF
:1003300070470000AD5600089501000880010020BC
:1003400080070020800300208003002053EA020C75
:1003500000F069802DE9F04B4FF00006002B1FBF25
:10036000B3FA83F503FA05F424FA05F65E4012BFEA
:100370001643B2FA82F502FA05F4C5F120051EBF54
:1003800022FA05FC44EA0C04203556EA044C4FEAF4
:10039000144418BF641C4FF000084FF0000990424D
:1003A00071EB030C39D3002919BFB1FA81F701FAB7
:1003B00007F6B0FA80F700FA07F6C7F120071EBF6C
:1003C00020FA07FC46EA0C062037B6FBF4FCA7EB44
:1003D0000507103F07F01F0BCBF120062CFA06F69D
:1003E0000CFA0BFB44BFB3460026202FA4BF5E4689
:1003F0004FF0000B5BEA060C08BF4FF0010B19EB46
:100400000B0948EB0608ABFB027C06FB02CC0BFB9E
:1004100003CCC01B71EB0C01C1E70B460246414601
:100420004846BDE8F08B13B5084318BF4FF0FF30C6
:100430000146AFF30080BDE81C4070470FB41CB507
:10044000084B06AA7B4469460090059800F051F9D4
:1004500004460020694600F05FF920461CBC5DF8A8
:1004600014FB0000D102000010B5431C02E010F89C
:10047000011B71B18107FAD14FF0013202C88C1A09
:100480008C4314EAC211F9D0C01A0A0603D0C01E68
:1004900010BDC01A10BD0A0401D0801E10BD090293
:1004A000FCD0401E10BD032A40F2308010F0030C37
:1004B00000F0158011F8013BBCF1020F624498BFB7
:1004C00011F801CB00F8013B38BF11F8013BA2F154
:1004D000040298BF00F801CB38BF00F8013B11F0CF
:1004E000030300F00183083AC0F0088051F8043B90
:1004F000083A51F804CBA0E80810F5E7121D5CBFDC
:1005000051F8043B40F8043BAFF30080D20724BF0E
:1005100011F8013B11F801CB48BF11F8012B24BFA2
:1005200000F8013B00F801CB48BF00F8012B7047F1
:100530004FF0000200B5134694469646203922BF7C
:10054000A0E80C50A0E80C50B1F12001BFF4F7AFC7
:10055000090728BFA0E80C5048BF0CC05DF804EBA9
:10056000890028BF40F8042B08BF704748BF20F817
:10057000022B11F0804F18BF00F8012B7047704715
:100580007047704770B5044685690068C10601D59B
:10059000302600E02026C00707D070BDD4E9012135
:1005A00030469047206A401C20626D1EF6D570BD13
:1005B00070B5044685690078C00707D170BDD4E9DD
:1005C000012120209047206A401C20626D1EF6D534
:1005D00070BD09684A0501D540B27047C905FCD510
:1005E00000B2704709684A0501D5C0B27047C90515
:1005F000FCD580B2704770B50C460546012A05D07F
:100600002878800600D5EA69002302E0012305E08E
:100610005B1C934202D2E05C0028F9D1A869E6187D
:10062000C01AA861286A184428622846FFF7AAFF62
:1006300004E0D5E9012114F8010B9047B442F8D346
:100640002846FFF7B5FF70BD2DE9F04106460024AE
:1006500010687529314616A510D0FFF7BAFF00289B
:1006600002DA404213A507E031688A0701D512A5D6
:1006700002E0490704D511A5012401E0FFF7B2FF0C
:1006800000210A2206F1240709E0B0FBF2FCB0FBCE
:10069000F2F302FB1C00303078541846491C002845
:1006A000F3D123462A463046BDE8F04100F093BA24
:1006B000000000002D0000002B00000020000000C2
:1006C00011680268006A530501D508700AE0D30575
:1006D00001D5088006E0130603D5C217C1E9000260
:1006E00000E008600120704701694A1C0261087837
:1006F000704700B58FB0CDE9013100210591054962
:100700007944CDE903101146684600F029F90FB08D
:1007100000BD0000E5FFFFFF0A6802F8010B0A6058
:10072000704700002DE9FF5F15468A460446DFF852
:10073000AC80F8440027D8E900103E46CDE900100F
:1007400010E03AF816106A4602A800F055FE411C67
:1007500007D02178890603D5E269391891420DD86E
:100760000744761C2078800602D5E069B84205DD92
:10077000AE42E6DB3AF816000028E2D1A069C01BC1
:10078000A0612046FFF7FEFED8E90010CDE9001079
:10079000002017E03AF818106A4602A800F02CFE74
:1007A000B0F1FF3F81460BD000250DF1080B05E0AD
:1007B000D4E901211BF8050090476D1C4D45F7D386
:1007C00008F10100B0428046E4DB206A3844206230
:1007D0002046FFF7EDFEBDE8FF9F0000D26300005A
:1007E0002DE9F0418046D21D22F007020025D2E912
:1007F0000002F52915A614D0011E72F1000106DAD7
:100800000023D0EB030063EB020211A608E0D8F846
:1008100000108B0701D50FA602E0490701D50EA6EF
:1008200001251146002408F1240704E000F08EF9A8
:1008300030323A55641C50EA0102F7D12B46324659
:1008400021464046BDE8F04100F0C5B90000000077
:100850002D0000002B0000002000000030B400211B
:1008600000F1240408E002F00705D208303542EA1E
:100870004372DB086554491C52EA0305F3D104684E
:10088000002310A2250708D504F020040C4304D04F
:10089000C46901230CA2641EC46130BC00F09BB982
:1008A00010B5044621461068FFF79CFE024620461C
:1008B000BDE810400023D1E7D21D22F00701D1E9A5
:1008C0000023CBE70000000030000000F0B40D462C
:1008D0000188090502D5214C7C4402E01F4C7C4470
:1008E0000E34002100F1240608E002F00F0712097F
:1008F000E75D42EA03721B097754491C52EA030779
:10090000F3D102780023120704D5702D06D009B167
:10091000022311342246F0BC00F05DB901231034EB
:10092000F8E770B504460D4621461068FFF75AFEF9
:10093000024629462046BDE870400023C6E7D21D86
:1009400022F00703D3E90023C0E70368126843F0ED
:10095000200303600823C3610023B7E7346200006B
:100960002DE9F05F894604464FF0000ADFF874B1C4
:10097000FB44C0F820A02046E1688847002874D0D6
:10098000252806D0D4E901219047206A401C206226
:10099000F1E700265F462046E168884720280546A3
:1009A00007DB312D05D2781910F8200C08B1064369
:1009B000F1E7B00701D526F00406C4F81CA0002713
:1009C000C4F818A02A2D09D0284606F057F838B3E5
:1009D00004EB8708303DC8F8185019E059F8041B9B
:1009E000204604EB87029161E1688847012F0546A4
:1009F00018D1E069002820DA26F020061DE0D8F89A
:100A0000180000EB800005EB40003038C8F81800F3
:100A10002046E1688847054606F030F80028EED108
:100A2000012F0AD02E2D08D12046E16888477F1C6F
:100A30000546022F46F02006C4DBA069002803DA31
:100A4000404246F00106A061F00701D026F01006F2
:100A50006C2D0BD0682D09D04C2D39D06A2D35D096
:100A6000742D35D07A2D33D016E038E0E1682F466A
:100A700020468847B842054609D16C2F26D04FF44E
:100A80008060E168064320468847054604E06C2FF5
:100A90001AD04FF4807006430DB3A5F14100192818
:100AA00002D8203546F400664A462946204626608C
:100AB0004E46FFF7BFFB80B101280BD0F61D26F094
:100AC000070000F1080956E74020E4E78020D8E756
:100AD0000020D6E706F104094DE7284652E7206AD0
:100AE000BDE8F09FC461000010B5203AC0F00B8053
:100AF000B1E81850A0E81850B1E81850A0E8185014
:100B0000203ABFF4F5AF5FEA027C24BFB1E8185089
:100B1000A0E8185044BF18C918C0BDE810405FEAEB
:100B2000827C24BF51F8043B40F8043B08BF704767
:100B3000D20728BF31F8023B48BF11F8012B28BF6C
:100B400020F8023B48BF00F8012B704730B5B0F1E8
:100B50000A0271F100034FEA900E4EEA817EB0EB7B
:100B60000E0061EB91014FEA101E4EEA017E10EB80
:100B70000E0041EB11114FEA102E4EEA016E10EB00
:100B80000E0041EB11214FEA104E4EEA014E10EBE0
:100B90000E0041EB1141401841F100014FEAD00035
:100BA00040EA41704FEAD1014FEA810444EA90746F
:100BB00010EB800544EB01046D1944EB0404521B57
:100BC000A3414FF0000348BF0A3200D530BD401C9E
:100BD00041F1000130BD2DE9F0470D46994692469E
:100BE000044600F124080168880604D5E06921F074
:100BF0001001216000E00120A84201DD471B00E058
:100C00000027A1697A1902EB0900081AA06120786F
:100C1000C00602D42046FFF7B5FC002608E0D4E960
:100C200001211AF806009047206A401C761C2062B9
:100C30004E45F4DB2078C0060AD52046FFF7A2FC1B
:100C400006E0D4E9012130209047206A401C206250
:100C5000381EA7F10107F4DC07E0D4E9012118F8F8
:100C600005009047206A401C2062281EA5F101055E
:100C7000F3DC2046FFF79CFC2078000602D502201A
:100C8000BDE8F0870120FBE72DE9FF4F0C461E462B
:100C90004FF0FF378BB0D2E90001DDF860800A9099
:100CA0008A46C1F30A5505B93D46002108464FF072
:100CB0000000BAF1000F00F4400005DA00EB8000FC
:100CC0004FF4400101EA50004FEA9059B9F1010F89
:100CD00000DDB9460A9850EA4A000ED044F610509A
:100CE000A5F2FF3545432F14B8F1000F1ED0754211
:100CF000291E1EDDC9F100021CE0B8F1010F4FF002
:100D0000000001D0302103E0F24305E02154401CF3
:100D1000B042FBDB30460022002121540B99C1F880
:100D20000880C1E900200FB0BDE8F08FBD1B6D1C2D
:100D3000DEE74A4600DA694206A800F0F3FB06AB9C
:100D400093E8070003AB83E8070050460A9905F0D3
:100D5000B5FA8DE80700A0F500501F380090039801
:100D6000002D0ADD42F21F014A460844002303A970
:100D70000390684605F01EFD09E0A0F500504A46C4
:100D80001F38002303A90390684605F028FD8DE86D
:100D900007000004000C03D04FF0FF30410800E0D2
:100DA0001046B8F1000F03D00022009215461EE055
:100DB000751E05D4FFF7CAFE303262556D1EF9D597
:100DC000B3460122084302D000227F1C04E02078B1
:100DD000302801D100227F1E002A099784D01DE00F
:100DE000112D07DAFFF7B2FE303262556D1C50EA62
:100DF0000102F5D1084302D00098C8B10EE00021ED
:100E0000681E05E0235C625C63542254401E491C4A
:100E10008142F7DBAB46A81B401E0990002004F876
:100E20000B000B98099AC0F80880C0E9002B7AE7FC
:100E300011264FF0000857E72DE9F04F8846044689
:100E4000D21D22F0070191B0D1E90001CDE90A01DC
:100E500005F0FCFD02460B98C00F01D02D2007E0E5
:100E60002068810701D52B2002E0202101EAC00083
:100E7000032A099001D0072A05DB03464146204694
:100E800000F010FB0BE12078800601D5E06900E05E
:100E90000620B8F1650F814606D0B8F1660F18D06C
:100EA000B8F1670F70D131E00020B9F1110F009057
:100EB00001DB112301E009F101030AAA01A90CA831
:100EC000FFF7E2FEDDE90C70002609F1010583461B
:100ED00047E001204B4600904FF000470AAA01A9C5
:100EE0000CA8FFF7D1FEDDE90DB00C995D46002698
:100EF00010B909F101000D18B9EB050003D4C0F1D8
:100F0000FF3609F10105A5EB09002BE0B9F1010F4E
:100F100001DA4FF001090020B9F1110F00904846A5
:100F200001DD112300E003460AAA01A90CA8FFF77E
:100F3000ABFEDDE90C704D460026834620780007A5
:100F40000AD4AB4500DA5D4601A8012D04DD411944
:100F500011F8011C302907D04F4502DA17F1040FB0
:100F600004DA012082460FE06D1EEEE7002F02DC5E
:100F7000ED1B3E4403E0781CA84200DD7D1CB81B3D
:100F800000F1010A4FF000472078000703D4AA457A
:100F900001DB4FF0FF3A0021B7F1004F0DF143089C
:100FA0008DF8431024D002202B23002F01DA7F423A
:100FB0002D230A21021EA0F1010000DC5FB197FB86
:100FC000F1FC97FBF1F201FB1C7C17460CF1300C95
:100FD00008F801CDEEE7A8F10100037021880905AA
:100FE00001D5452100E06521A0F1010800F8011CB0
:100FF00009980FA9A1EB0807FF1D00B101204119B5
:1010000001EBEA70A1693844081A401EA0612078FB
:10101000C00602D42046FFF7B5FA099828B1D4E9F2
:1010200001219047206A401C20622078C00622D50A
:101030002046FFF7A7FA1EE0002E04DBB34502DDD1
:1010400001A8805D00E03020D4E901219047206AAA
:10105000401C2062761CAAF101005FEA000A0AD156
:1010600000F01CFAC0680168405CD4E90121904797
:10107000206A401C2062281EA5F10105DCDC07E087
:10108000D4E9012118F8010B9047206A401C206226
:10109000381EA7F10107F3DC2046FFF789FA032089
:1010A00011B041E62DE9F04F04460D46D21D22F065
:1010B000070089B0D0E900974846394605F0C6FCDC
:1010C0000246F80F01D02D2307E02068810701D5E3
:1010D0002B2302E0202101EAC0038DF820300BB160
:1010E000012000E00020032A824601D0072A04DB09
:1010F0002946204600F0D6F93FE12078800601D449
:101100000D2500E0E569C7F30A560D2D49DA0021E7
:101110004FEA175B08464FF00000002F00F4400034
:1011200007DA00EB80004FF4400100EBD07001EAD9
:1011300060008115012901DD4FF0FF3100224FEAE7
:10114000850CBCF1180F06D31346ACF118004FF014
:101150008052C24003E04FF4801323FA0CF30CF1E9
:101160000C0CBCF1200F04D3ACF1200C09FA0CF0EC
:1011700001E007FA0CF000294FF0004801DD18B932
:101180000FE00ED140450CD319EB02095F4121B9A4
:10119000404502D19F4329EA0209BBEB175F00D00B
:1011A000761C2088000502D57B48784402E07A4806
:1011B0007844193808AA302302F80A30037C0AF16F
:1011C0000101002E0AF1020A53546A4602DC4FF074
:1011D000300101E04FF031014FF001088DF80010AF
:1011E00002D0A6F2FF3603E059EA470100D06B4E69
:1011F000002D02DC2178090704D54FF002082E21CA
:101200008DF80110C44600210BE0C7F303433F01F2
:10121000C35C491C6D1E02F80830052908F101085D
:1012200001DA002DF1DC00210CE000EB1973491C00
:101230001B786D1E082902F808304FEA091908F1D9
:10124000010801DA002DF0DC21688B0602D516E0DA
:10125000A8F10108E04505DD02EB080313F8013CA5
:10126000302BF5D0B8F1000F09DD02EB080313F8BD
:10127000013C2E2B03D1090701D4A8F10108002D50
:1012800005DD3E2102F808106D1E08F10108407CC2
:10129000002E02F8080008F1010804DA2D20764239
:1012A00002F8080002E02B2002F808000A214FF49F
:1012B0007A70864208F101080BDB96FBF0F33033BD
:1012C00002F8083096FBF0F308F1010800FB136602
:1012D00001E0642E0CDB642096FBF0F3303302F85F
:1012E000083096FBF0F308F1010800FB136601E0FB
:1012F0000A2E06DB96FBF1F0303002F8080008F108
:10130000010896FBF1F001FB1060303002F8080094
:10131000A16908F1010808EB050202EB0A00081AAE
:10132000A0612078C00602D42046FFF72BF9216A7D
:1013300008AE01EB0A00206204E0D4E9012116F8AE
:10134000010B9047BAF1010AF7D22078C00602D506
:101350002046FFF717F96E4609E016F8010B3E2804
:101360000FD0D4E901219047206A401C2062B8F1D7
:101370000108F2D22046FFF71BF909B00320BDE8AF
:10138000F08F206A2844206203E0D4E90121302054
:1013900090476D1EEBD3F8E7AE59000002FCFFFF4B
:1013A00010B5436913B1AFF3008001E0FFF723F9F3
:1013B000012010BD127800F124010A7000224A7049
:1013C0000122EDE711684FF0FF32E9E710B54369FC
:1013D00013B1AFF3008001E0FFF7A4F9012010BDC5
:1013E000128800F1240182840022C2840122EDE7E8
:1013F00011684FF0FF32E9E72DE9F04116460C463F
:10140000054600F043F8036893F80101012807D06E
:10141000FF2C12D8185D80B101202C70BDE8F0813E
:10142000D3F807013246214603F20713C7182846AE
:10143000BC46BDE8F041002360474FF0FF30EDE7C8
:10144000754600F0EBF8AE4605006946534620F0BD
:101450000700854618B020B5FEF766FFBDE82040BE
:101460004FF000064FF000074FF000084FF0000B60
:10147000AC46ACE8C009ACE8C009ACE8C009ACE8CF
:10148000C00921F007018D467047000010B500F03B
:1014900005F8001D10BD00BF215600000048704730
:1014A000300000202DE9F0411F4604460326016864
:1014B000072A01F4006004DB08B116A505E016A5B3
:1014C00003E008B115A500E015A521F0100020608B
:1014D000A069C01EA0610FB1401EA0612046FFF7A9
:1014E00051F84FB1D4E9012138469047206A401C99
:1014F0002062C01C206206E0206AFAE7D4E90121DC
:1015000015F8010B9047761EF8D22046FFF750F8E9
:10151000BDE8F0814E414E006E616E00494E4600BE
:10152000696E66002DE9F047814616468AB0354857
:1015300078440DC88DE80D0032487844801C03AC17
:101540000DC884E80D0041F69B300844372190FB1C
:10155000F1F290FBF1F5A5F1800501FB12041B3CB3
:1015600002D56442012000E00020DFF898A0804608
:101570000027FA44AAF1BE0A0EE0E0070AD032467C
:10158000684607EB470101230AEB810105F027F9C3
:101590008DE8070064107F1C002CEED1194F7F44AA
:1015A000AE3F19E0E80715D007EB04100DF1180A5B
:1015B00090E80E008AE80E00C068F04201D1981948
:1015C00008903246012306A903A805F008F903ABE9
:1015D00083E807006D10641C002DE3D14FF0010378
:1015E00032466946B8F1000F03A802D005F0E2F8D0
:1015F00001E005F0F4F8C9E90001C9F808200AB0D3
:10160000BDE8F087B856000010B50446AFF300807F
:101610002046BDE81040FEF772BE0000004870474B
:10162000100000200000000030B44FF0013C50F8E2
:10163000042B51F8043BCCFA52F4D51A20D1FCB952
:1016400050F8042B51F8043BCCFA52F4D51A17D1B8
:10165000B4B950F8042B51F8043BCCFA52F4D51A23
:101660000ED16CB950F8042B51F8043BCCFA52F46B
:10167000D51A05D1002CDAD030BC4FF000007047ED
:1016800029BAB1FA81F111F01801D1F1200084409A
:10169000F2D1CA40CB4012F0FF0213F0FF0330BC7E
:1016A000D01A704701491820ABBEFEE726000200A1
:1016B0007047000080B503F063FC02F08BFE03F07E
:1016C00007FD80BDFFE7FEE77047000072B6FFE749
:1016D000FEE7000080B584B002900298806D019012
:1016E00000F07CFA0090029890F8350002280DD0A6
:1016F000FFE7029980204865FFE70299002081F802
:101700003400FFE701208DF80F0055E002980168D2
:10171000086820F01600086002980168486920F007
:10172000800048610298006C20B9FFE70298806C45
:1017300038B1FFE702980168086820F008000860E7
:10174000FFE702980168086820F001000860FFE7E1
:10175000029800680068C007C8B1FFE700F03EFAD1
:101760000099401A062811D3FFE702992020486506
:101770000299032081F83500FFE70299002081F8E3
:101780003400FFE703208DF80F0015E0E0E7029832
:10179000C16D3F208840019988600299012081F83D
:1017A0003500FFE70299002081F83400FFE7FFE7EA
:1017B00000208DF80F00FFE79DF80F0004B080BDFA
:1017C00082B00090009890F83500022807D0FFE71B
:1017D00000998020486501208DF807000EE00099EF
:1017E000052081F8350000980168086820F00100A4
:1017F0000860FFE700208DF80700FFE79DF807006D
:1018000002B0704780B584B0039000F0E7F9029011
:10181000039801900198013048B1FFE740F20400BD
:10182000C2F200000178019808440190FFE7FFE749
:1018300000F0D4F90299401A0199884201D2FFE7D9
:10184000F6E704B080BD00008BB00A90099100203B
:101850000790069005900890FFE708980F2800F27F
:10186000A281FFE708990120884007900998006845
:1018700007990840069006980799884240F08E81A3
:10188000FFE70998406800F00300012807D0FFE750
:101890000998406800F0030002282FD1FFE70A985A
:1018A0008068059008984100032000FA01F105982E
:1018B000884305900998C0680899490000FA01F129
:1018C00005980843059005980A9988600A98406829
:1018D00005900899012000FA01F1059888430590C8
:1018E00009984068C0F30010089900FA01F10598C2
:1018F0000843059005980A994860FFE709984068F1
:1019000000F00300032818D0FFE70A98C06805908C
:1019100008984100032000FA01F1059888430590DA
:10192000099880680899490000FA01F10598084370
:10193000059005980A99C860FFE70998406800F08B
:101940000300022826D1FFE70A9808996FF00302E6
:1019500002EA51010844006A0590089800F0070067
:1019600081000F2000FA01F105988843059009983D
:101970000069089901F00701890000FA01F1059852
:101980000843059005980A99089B02EA53021144FE
:101990000862FFE70A980068059008984100032054
:1019A00000FA01F10598884305900998406800F015
:1019B00003000899490000FA01F1059808430590D1
:1019C00005980A990860099880798007002800F036
:1019D000E480FFE7FFE70020049043F64400C4F2F0
:1019E0000200016841F480410160006800F4804019
:1019F00004900498FFE7089820F0030043F60801DC
:101A0000C4F2010140580590089800F003008100DD
:101A10000F2000FA01F10598884305900A980021EB
:101A2000C4F20201884203D1FFE70020039034E0B2
:101A30000A9840F20041C4F20201884203D1FFE754
:101A40000120029026E00A9840F60001C4F202014B
:101A5000884203D1FFE70220019018E00A9840F67F
:101A60000041C4F20201884203D1FFE70320009045
:101A70000AE00A9941F20002C4F2020207209142F0
:101A800008BF04200090FFE700980190FFE701984D
:101A90000290FFE702980390FFE70398C0B208990D
:101AA00001F00301890000FA01F10598084305904F
:101AB0000598089921F0030143F60802C4F20102D7
:101AC000885043F60840C4F201000068059006996A
:101AD00005988843059009988079C006002805D5A7
:101AE000FFE70699059808430590FFE7059843F638
:101AF0000841C4F20101086043F60C40C4F2010041
:101B000000680590069905988843059009988079A2
:101B10008006002805D5FFE706990598084305903B
:101B2000FFE7059843F60C41C4F20101086043F653
:101B30000440C4F2010000680590069905988843A6
:101B40000590099880798007002805D5FFE7069958
:101B5000059808430590FFE7059843F60441C4F251
:101B60000101086043F60040C4F2010000680590DE
:101B7000069905988843059009988079C00728B18F
:101B8000FFE70699059808430590FFE7059843F697
:101B90000041C4F201010860FFE7FFE7FFE7089892
:101BA0000130089059E60BB07047000082B00190F8
:101BB000ADF802108DF801209DF8010028B1FFE773
:101BC000BDF802000199886105E0BDF8020000043B
:101BD00001998861FFE702B07047000040F27C1075
:101BE000C2F200000068704780B58EB00C900C986F
:101BF00020B9FFE701208DF8370043E10C9890F8F9
:101C00003D0040B9FFE70C99002081F83C000C989A
:101C100000F08AFFFFE70C99242081F83D000C9822
:101C20000168086820F0010008600C9801680868E5
:101C300040F4004008600C980168086820F40040F7
:101C4000086001F0A5F90A900C98406848F2A0617C
:101C5000C0F2010188420BD8FFE70A9948F280429E
:101C6000C0F21E020020914238BF012009900AE014
:101C70000A9940F60012C0F23D020020914238BF9E
:101C800001200990FFE70998012804D1FFE701200E
:101C90008DF83700F6E00A984DF68361C4F21B31E7
:101CA000A0FB0110800C0B900C980068406820F09D
:101CB0003F000B9908430C99096848600C9800682C
:101CC000006A20F03F0008900C98406848F2A0613C
:101CD000C0F20101884204D8FFE70B980130079059
:101CE0000EE00B984FF49671484344F6D351C1F27D
:101CF0006201A0FB0101012000EB91100790FFE7BA
:101D00000898079908430C99096808620C980068BC
:101D1000C0694CF6FF71884306900C98406848F201
:101D2000A061C0F2010188421FD8FFE70A9801387C
:101D30000C9949684900B0FBF1F001306FF31F3096
:101D4000032803D8FFE7042005900BE00A98013828
:101D50000C9949684900B0FBF1F001306FF31F3076
:101D60000590FFE7059804904CE00C98806868B9EE
:101D7000FFE70A9801380C99496801EB4101B0FB73
:101D8000F1F001306FF31F3003900DE00A98013835
:101D90000C99496819225143B0FBF1F0013004213C
:101DA00061F31F300390FFE70398000518B9FFE7C0
:101DB0000120029023E00C98806868B9FFE70A9838
:101DC00001380C99496801EB4101B0FBF1F0013099
:101DD0006FF31F3001900DE00A9801380C994968A3
:101DE00019225143B0FBF1F00130042161F31F309F
:101DF0000190FFE7019840F400400290FFE702984D
:101E00000490FFE70698049908430C990968C86193
:101E10000C980068006820F0C0000C9B1968DA6913
:101E20001B6A1A43104308600C980068806848F2E7
:101E3000FF3188430C9A1168D36812691A43104322
:101E400088600C980068C06820F0FF000C9B19683F
:101E50005A699B691A431043C8600C980168086866
:101E600040F0010008600C99002008640C9A2021C1
:101E700082F83D100C9908630C9981F83E008DF8AA
:101E80003700FFE79DF837000EB080BD80B58CB0FD
:101E9000DDF838C00A90ADF826100892ADF81E3073
:101EA000FFF79CFE06900A9890F83D00202840F02D
:101EB000FE81FFE70A9806996A4611600221C0F286
:101EC00010010122192302F06BFE20B1FFE702206E
:101ED0008DF82F00EFE1FFE70A9890F83C00012809
:101EE00004D1FFE702208DF82F00E4E10A990120D8
:101EF00081F83C00FFE7FFE70A980068006800F0FF
:101F00000100012807D0FFE70A980168086840F03F
:101F100001000860FFE70A980168086820F4006083
:101F200008600A99222081F83D000A99102081F862
:101F30003E000A990020086408980A994862BDF892
:101F40001E000A9948850A98408D0A9908850A99C1
:101F50000020CFF6FF70C8620A98BDF826100E9ACE
:101F6000069B02F0D7FA20B1FFE701208DF82F0081
:101F7000A1E10A98008DA0B9FFE7FFE700200590D6
:101F80000A980068406905900A9800688069059081
:101F90000598FFE70A980168086840F40070086037
:101FA00053E00A98008D01281AD1FFE70A980168CA
:101FB000086820F480600860FFE7002004900A9819
:101FC0000068406904900A98006880690490049849
:101FD000FFE70A980168086840F40070086033E081
:101FE0000A98008D02281AD1FFE70A98016808684C
:101FF00020F4806008600A980168086840F4006076
:102000000860FFE7002003900A9800684069039089
:102010000A980068806903900398FFE713E00A9824
:102020000168086840F480600860FFE700200290C3
:102030000A980068406902900A98006880690290D6
:102040000298FFE7FFE7FFE7FFE7FFE70A98008D49
:10205000002800F01A81FFE70A98008D032800F29B
:10206000CC80FFE70A98008D01281ED1FFE70A986F
:102070000E99069A02F0C2FE20B1FFE701208DF80A
:102080002F0018E10A98006800690A99496A0870E7
:102090000A99486A013048620A99088D0138088512
:1020A0000A99488D01384885A6E00A98008D0228D3
:1020B0003CD1FFE70A980E9B06996A4611600421FD
:1020C000C0F20101002202F06BFD20B1FFE7012008
:1020D0008DF82F00EFE00A980168086840F400705E
:1020E00008600A98006800690A99496A08700A99A4
:1020F000486A013048620A99088D013808850A99B2
:10210000488D013848850A98006800690A99496A2B
:1021100008700A99486A013048620A99088D0138A6
:1021200008850A99488D0138488564E00A980E9B15
:1021300006996A4611600421C0F20101002202F0F2
:102140002FFD20B1FFE701208DF82F00B3E00A98A2
:102150000168086820F4806008600A9800680069D7
:102160000A99496A08700A99486A013048620A99CE
:10217000088D013808850A99488D013848850A98E4
:102180000E9B06996A4611600421C0F201010022EB
:1021900002F006FD20B1FFE701208DF82F008AE054
:1021A0000A980168086840F4007008600A9800689E
:1021B00000690A99496A08700A99486A01304862B8
:1021C0000A99088D013808850A99488D0138488593
:1021D0000A98006800690A99496A08700A99486A69
:1021E000013048620A99088D013808850A99488D9E
:1021F00001384885FFE7FFE746E00A980E99069AFE
:1022000002F0FCFD20B1FFE701208DF82F0052E025
:102210000A98006800690A99496A08700A99486A28
:10222000013048620A99088D013808850A99488D5D
:10223000013848850A980068406900F004010120CF
:10224000B0EB910F1FD1FFE70A98008D032807D14B
:10225000FFE70A980168086820F480600860FFE7DB
:102260000A98006800690A99496A08700A99486AD8
:10227000013048620A99088D013808850A99488D0D
:1022800001384885FFE7FFE7E0E60A99202081F85A
:102290003D000A99002081F83E00FFE70A990020DE
:1022A00081F83C00FFE700208DF82F0003E00220BA
:1022B0008DF82F00FFE79DF82F000CB080BD0000C7
:1022C00080B588B0DDF828C00690ADF816100492ED
:1022D000ADF80E30FFF782FC0290069890F83D00B2
:1022E000202840F0EB80FFE7069802996A461160CB
:1022F0000221C0F210010122192302F051FC20B189
:10230000FFE702208DF81F00DCE0FFE7069890F859
:102310003C00012804D1FFE702208DF81F00D1E026
:102320000699012081F83C00FFE7FFE70698006866
:10233000006800F00100012807D0FFE70698016857
:10234000086840F001000860FFE706980168086827
:1023500020F4006008600699212081F83D0006996C
:10236000102081F83E000699002008640498069920
:102370004862BDF80E00069948850698408D06997A
:10238000088506990020CFF6FF70C8620698BDF850
:1023900016100A9A029B02F093F920B1FFE7012080
:1023A0008DF81F008EE0FFE700200190069800687E
:1023B0004069019006980068806901900198FFE7E4
:1023C000FFE70698008D002860D0FFE706980A997D
:1023D000029A02F081FD80B1FFE70698006C0428A4
:1023E00007D1FFE706980168086840F400700860AC
:1023F000FFE701208DF81F0064E006980168406A3D
:10240000007808610699486A013048620699488D4B
:10241000013848850699088D0138088506980068B6
:10242000406900F004010120B0EB910F16D1FFE7E5
:102430000698008D90B1FFE706980168406A007821
:1024400008610699486A013048620699488D01384A
:1024500048850699088D01380885FFE706980A998E
:10246000029A02F047FB80B1FFE70698006C04284F
:1024700007D1FFE706980168086840F4007008601B
:10248000FFE701208DF81F001CE09AE7069801681D
:10249000086840F4007008600699202081F83D002B
:1024A0000699002081F83E00FFE70699002081F898
:1024B0003C00FFE700208DF81F0003E002208DF8AC
:1024C0001F00FFE79DF81F0008B080BD10B58CB05D
:1024D000844610980F98DDF838E0CDF828C0ADF8A4
:1024E0002610ADF82420ADF82230ADF82000FFF71B
:1024F00075FB07900A9890F83D00202840F0028272
:10250000FFE70A9807996A4611600221C0F210019C
:102510000122192302F044FB20B1FFE702208DF8CD
:102520002F00F3E1FFE70A9890F83C00012804D15E
:10253000FFE702208DF82F00E8E10A99012081F8D9
:102540003C00FFE7FFE70A980068006800F0010020
:10255000012807D0FFE70A980168086840F00100E9
:102560000860FFE70A980168086820F400600860C6
:102570000A99222081F83D000A99402081F83E0006
:102580000A99002008640E980A994862BDF8200054
:102590000A9948850A98408D0A9908850A99002069
:1025A000CFF6FF70C8620A98BDF82610BDF8242047
:1025B000BDF82230DDF840C0079CEE46CEF804405E
:1025C000CEF800C002F006F920B1FFE701208DF837
:1025D0002F009BE10A98008DA0B9FFE7FFE70020DC
:1025E00006900A980068406906900A980068806919
:1025F00006900698FFE70A980168086840F40070A2
:1026000008604DE00A98008D01281AD1FFE70A986A
:102610000168086820F480600860FFE700200590EA
:102620000A980068406905900A98006880690590DA
:102630000598FFE70A980168086840F40070086090
:102640002DE00A98008D02281AD1FFE70A98016848
:10265000086820F4806008600A980168086840F4FF
:1026600000600860FFE7002004900A980068406955
:1026700004900A980068806904900498FFE70DE0D0
:10268000FFE7002003900A980068406903900A98C9
:102690000068806903900398FFE7FFE7FFE7FFE723
:1026A000FFE70A98008D002800F01A81FFE70A98DA
:1026B000008D032800F2CC80FFE70A98008D0128E6
:1026C0001ED1FFE70A981099079A02F097FB20B1F4
:1026D000FFE701208DF82F0018E10A9800680069D3
:1026E0000A99496A08700A99486A013048620A9949
:1026F000088D013808850A99488D01384885A6E07B
:102700000A98008D02283CD1FFE70A98109B079990
:102710006A4611600421C0F20101002202F040FA71
:1027200020B1FFE701208DF82F00EFE00A98016843
:10273000086840F4007008600A98006800690A9907
:10274000496A08700A99486A013048620A99088DF6
:10275000013808850A99488D013848850A9800682B
:1027600000690A99496A08700A99486A0130486202
:102770000A99088D013808850A99488D01384885DD
:1027800064E00A98109B07996A4611600421C0F220
:102790000101002202F004FA20B1FFE701208DF8C8
:1027A0002F00B3E00A980168086820F48060086090
:1027B0000A98006800690A99496A08700A99486A83
:1027C000013048620A99088D013808850A99488DB8
:1027D000013848850A98109B07996A4611600421C0
:1027E000C0F20101002202F0DBF920B1FFE7012075
:1027F0008DF82F008AE00A980168086840F400709C
:1028000008600A98006800690A99496A08700A997C
:10281000486A013048620A99088D013808850A998A
:10282000488D013848850A98006800690A99496A04
:1028300008700A99486A013048620A99088D01387F
:1028400008850A99488D01384885FFE7FFE746E08B
:102850000A981099079A02F0D1FA20B1FFE70120F7
:102860008DF82F0052E00A98006800690A99496AB9
:1028700008700A99486A013048620A99088D01383F
:1028800008850A99488D013848850A98006840698A
:1028900000F004010120B0EB910F1FD1FFE70A986F
:1028A000008D032807D1FFE70A980168086820F423
:1028B00080600860FFE70A98006800690A99496A21
:1028C00008700A99486A013048620A99088D0138EF
:1028D00008850A99488D01384885FFE7FFE7E0E65B
:1028E0000A99202081F83D000A99002081F83E00D5
:1028F000FFE70A99002081F83C00FFE700208DF8EF
:102900002F0003E002208DF82F00FFE79DF82F0035
:102910000CB010BD10B588B084460C980B98DDF84B
:1029200028E0CDF818C0ADF81610ADF81420ADF8B9
:102930001230ADF81000FFF751F90390069890F8A7
:102940003D00202840F0E880FFE7069803996A469A
:1029500011600221C0F210010122192302F020F9B6
:1029600020B1FFE702208DF81F00D9E0FFE70698AD
:1029700090F83C00012804D1FFE702208DF81F00E9
:10298000CEE00699012081F83C00FFE7FFE70698BA
:102990000068006800F00100012807D0FFE70698F2
:1029A0000168086840F001000860FFE706980168C8
:1029B000086820F4006008600699212081F83D0035
:1029C0000699402081F83E000699002008640A9884
:1029D00006994862BDF81000069948850698408D12
:1029E0000699088506990020CFF6FF70C862069800
:1029F000BDF81610BDF81420BDF81230DDF830C057
:102A0000039CEE46CEF80440CEF800C001F0D4FF9F
:102A100020B1FFE701208DF81F0081E0FFE7069855
:102A2000008D002849D0FFE706980C99039A02F020
:102A300053FA80B1FFE70698006C042807D1FFE73E
:102A400006980168086840F400700860FFE70120FC
:102A50008DF81F0064E006980168406A00780861FC
:102A60000699486A013048620699088D0138088540
:102A70000699488D0138488506980068406900F03D
:102A800004010120B0EB910F16D1FFE70698008DED
:102A900090B1FFE706980168406A007808610699DE
:102AA000486A013048620699088D01380885069900
:102AB000488D01384885FFE7B1E706980C99039ADD
:102AC00002F018F880B1FFE70698006C042807D1DF
:102AD000FFE706980168086840F400700860FFE7A7
:102AE00001208DF81F001BE006980168086840F47B
:102AF000007008600699202081F83D0006990020AA
:102B000081F83E00FFE70699002081F83C00FFE7CE
:102B100000208DF81F0003E002208DF81F00FFE762
:102B20009DF81F0008B010BD80B588B00790002048
:102B3000069005900490039002900798006845F273
:102B40000041C4F20001884234D1FFE7FFE70020D2
:102B5000019043F63000C4F20200016841F0020126
:102B60000160006800F0020001900198FFE7C020BA
:102B7000029012200390002004900320059004206E
:102B8000069040F20040C4F2020002A9FEF75CFE8B
:102B9000FFE70020009043F64000C4F20200016805
:102BA00041F400110160006800F4001000900098EA
:102BB000FFE7FFE708B080BD40F20400C2F200006A
:102BC000027840F27C11C2F20001086810440860EB
:102BD0007047000080B543F60041C4F20201086866
:102BE00040F400700860086840F48060086008687D
:102BF00040F480700860032000F08AF80F2000F095
:102C000005F800F03BF8002080BD000080B582B0E0
:102C1000009040F20000C2F20000006840F204019F
:102C2000C2F200010A784FF47A71B1FBF2F1B0FB05
:102C3000F1F000F0A5FD20B1FFE701208DF80700BD
:102C400018E000980F280DD8FFE700994FF0FF30EB
:102C5000002200F043F8009840F20801C2F200019F
:102C6000086003E001208DF8070003E000208DF8E4
:102C70000700FFE79DF8070002B080BD82B0FFE7C4
:102C80000020019043F64400C4F20200016841F4C0
:102C900080410160006800F4804001900198FFE7E6
:102CA000FFE70020009043F64000C4F202000168F4
:102CB00041F080510160006800F080500090009861
:102CC000FFE702B07047000080B582B08DF80700C2
:102CD0009DF9070003F0B6F902B080BD80B586B05B
:102CE0008DF81700049103920020029003F0C2F9BE
:102CF00002909DF91700019002980499039A02F03E
:102D00000FFC0146019803F0BDF906B080BD00003C
:102D100080B582B00190019803F0D6F902B080BD71
:102D200080B584B002900191029820B9FFE701209C
:102D30008DF80F0021E1019843F60041C4F2020131
:102D4000096801F00701884212D9FFE7019943F6AB
:102D50000040C4F202000170006800F00700019911
:102D6000884204D0FFE701208DF80F0005E1FFE75E
:102D700002980078800700282AD5FFE7029800789B
:102D80004007002809D5FFE743F60801C4F2020115
:102D9000086840F4E0500860FFE7029800780007F8
:102DA000002809D5FFE743F60801C4F202010868CC
:102DB00040F460400860FFE743F60801C4F20201F6
:102DC000086820F0F000029A926810430860FFE75C
:102DD00002980078C00700286ED0FFE7029840688C
:102DE000012811D1FFE743F60000C4F20200006899
:102DF00000F400310020B0EB514F04D1FFE7012077
:102E00008DF80F00B9E02CE002984068022805D048
:102E1000FFE702984068032811D1FFE743F600005E
:102E2000C4F20200006800F000710020B0EB516FA6
:102E300004D1FFE701208DF80F009EE010E043F67B
:102E40000000C4F20200006800F002010020B0EBB4
:102E5000510F04D1FFE701208DF80F008DE0FFE74F
:102E6000FFE743F60801C4F20201086820F00300FE
:102E7000029A526810430860FEF7B0FE0090FFE728
:102E800043F60800C4F20200006800F00C0002994A
:102E90004968B0EB810F0ED0FFE7FEF79FFE009967
:102EA000401A41F28931884204D3FFE703208DF8AC
:102EB0000F0062E0E4E7FFE7019843F60041C4F247
:102EC0000201096801F00701884212D2FFE7019967
:102ED00043F60040C4F202000170006800F00700F1
:102EE0000199884204D0FFE701208DF80F0044E0EB
:102EF000FFE702980078400700280CD5FFE743F66B
:102F00000801C4F20201086820F4E050029AD26875
:102F100010430860FFE702980078000700280DD5ED
:102F2000FFE743F60801C4F20201086820F460409C
:102F3000029A126940EAC2000860FFE700F04CF80C
:102F400043F60801C4F202010968C9B20A0946F64B
:102F50000441C0F60001895CC84040F20001C2F2A1
:102F60000001086040F20800C2F200000068FFF7AC
:102F70004DFE00208DF80F00FFE79DF80F0004B014
:102F800080BD000040F20000C2F2000000687047FF
:102F900080B5FFF7F7FF43F60801C4F202010968A4
:102FA000C1F3822246F61441C0F60001895CC84094
:102FB00080BD000080B5FFF7E5FF43F60801C4F2CD
:102FC0000201096889B24A0B46F61441C0F60001B5
:102FD000895CC84080BD000080B586B000200590A7
:102FE00004900390029043F60800C4F202000068C7
:102FF00000F00C000146019140B1FFE70198042860
:103000000AD0FFE7019808280CD04FE042F20040B8
:10301000C0F2F40002904FE041F20020C0F27A00CA
:10302000029049E043F60400C4F20200016801F096
:103030003F01059100684002002813D5FFE743F6E1
:103040000400C4F202000068C0F3881041F20021BD
:10305000C0F27A01A0FB0101059A0023FDF776F981
:10306000049012E043F60400C4F202000068C0F3CA
:10307000881042F20041C0F2F401A0FB0101059A60
:103080000023FDF763F90490FFE743F60400C4F260
:103090000200006800F44031022000EBD1300390C0
:1030A00004980399B0FBF1F0029005E042F2004071
:1030B000C0F2F4000290FFE7029806B080BD000065
:1030C00080B586B00490049820B9FFE701208DF800
:1030D000170050E304980078C007002800F0A5808E
:1030E000FFE743F60800C4F20200006800F00C009D
:1030F000042813D0FFE743F60800C4F2020000687A
:1031000000F00C0008281ED1FFE743F60400C4F2CB
:10311000020000684002002815D5FFE743F60000D2
:10312000C4F20200006800F400310020B0EB514FFF
:1031300008D0FFE70498406820B9FFE701208DF828
:10314000170018E370E0FFE704984068B0F5803F8F
:1031500009D1FFE743F60001C4F20201086840F418
:103160008030086020E004984068B0F5A02F0DD1B1
:10317000FFE743F60001C4F20201086840F4802032
:103180000860086840F4803008600CE043F60001F5
:10319000C4F20201086820F480300860086820F456
:1031A00080200860FFE7FFE7FFE704984068E8B188
:1031B000FFE7FEF713FD0390FFE743F60000C4F2BC
:1031C0000200006800F400310020B0EB514F0CD138
:1031D000FFE7FEF703FD0399401A652804D3FFE7D4
:1031E00003208DF81700C6E2E7E71CE0FEF7F6FCC7
:1031F0000390FFE743F60000C4F20200006800F409
:1032000000310020B0EB514F0CD0FFE7FEF7E6FC99
:103210000399401A652804D3FFE703208DF81700AF
:10322000A9E2E7E7FFE7FFE7FFE7049800788007F8
:10323000002840F19680FFE743F60800C4F2020040
:10324000006810F00C0F13D0FFE743F60800C4F23B
:103250000200006800F00C0008282CD1FFE743F6BC
:103260000400C4F2020000684002002823D4FFE7F3
:1032700043F60000C4F20200006800F002010020E2
:10328000B0EB510F09D0FFE70498C068012804D0C3
:10329000FFE701208DF817006DE243F60001C4F24C
:1032A0000201086820F0F800049A126940EAC2009E
:1032B0000860FFE754E00498C06870B3FFE700219E
:1032C000C4F2472101200860FEF788FC0390FFE765
:1032D00043F60000C4F20200006800F00201002082
:1032E000B0EB510F0CD1FFE7FEF778FC0399401AC1
:1032F000032804D3FFE703208DF817003BE2E7E73C
:1033000043F60001C4F20201086820F0F800049AB4
:10331000126940EAC200086021E00021C4F247219E
:1033200000200860FEF75AFC0390FFE743F6000018
:10333000C4F20200006800F002010020B0EB510F5F
:103340000CD0FFE7FEF74AFC0399401A032804D388
:10335000FFE703208DF817000DE2E7E7FFE7FFE73F
:10336000FFE704980078000700284BD5FFE7049892
:10337000406918B3FFE740F68061C4F2472101209D
:103380000860FEF72BFC0390FFE743F67400C4F2DD
:103390000200006800F002010020B0EB510F0CD1D8
:1033A000FFE7FEF71BFC0399401A032804D3FFE74D
:1033B00003208DF81700DEE1E7E722E040F68061A8
:1033C000C4F2472100200860FEF708FC0390FFE7E5
:1033D00043F67400C4F20200006800F0020100200D
:1033E000B0EB510F0CD0FFE7FEF7F8FB0399401A42
:1033F000032804D3FFE703208DF81700BBE1E7E7BC
:10340000FFE7FFE7049800784007002840F1CE80EE
:10341000FFE700208DF8070043F64000C4F20200E9
:103420000068C000002815D4FFE7FFE700200090E7
:1034300043F64000C4F20200016841F0805101608F
:10344000006800F0805000900098FFE701208DF8A0
:103450000700FFE747F20000C4F200000068C00563
:10346000002822D4FFE747F20001C4F200010868F7
:1034700040F480700860FEF7B1FB0390FFE747F26D
:103480000000C4F200000068C00500280CD4FFE76B
:10349000FEF7A4FB0399401A032804D3FFE7032097
:1034A0008DF8170067E1EAE7FFE7FFE70498806817
:1034B000012809D1FFE743F67001C4F20201086850
:1034C00040F0010008601FE00498806805280DD1D5
:1034D000FFE743F67001C4F20201086840F00400FF
:1034E0000860086840F0010008600CE043F67001D5
:1034F000C4F20201086820F001000860086820F0AA
:1035000004000860FFE7FFE7FFE704988068F8B170
:10351000FFE7FEF763FB0390FFE743F67000C4F29A
:103520000200006800F002010020B0EB510F0ED144
:10353000FFE7FEF753FB0399401A41F289318842B5
:1035400004D3FFE703208DF8170014E1E5E71EE040
:10355000FEF744FB0390FFE743F67000C4F202005D
:10356000006800F002010020B0EB510F0ED0FFE721
:10357000FEF734FB0399401A41F28931884204D3A3
:10358000FFE703208DF81700F5E0E5E7FFE79DF87A
:103590000700012809D1FFE743F64001C4F2020108
:1035A000086820F080500860FFE7FFE70498806912
:1035B000002800F0DC80FFE743F60800C4F20200B8
:1035C000006800F00C00082800F08580FFE70498F0
:1035D000806902285CD1FFE76021C4F24721002006
:1035E0000860FEF7FBFA0390FFE743F60000C4F221
:1035F0000200006800F000710020B0EB516F0CD0A9
:10360000FFE7FEF7EBFA0399401A032804D3FFE71C
:1036100003208DF81700AEE0E7E70499C869D1F8F8
:1036200020C04B6A8A6A40EA0C0040EA8310D20349
:103630004FF6FF739A43A2F580321043C96A40EAFD
:10364000016043F60401C4F2020108606021C4F283
:10365000472101200860FEF7C1FA0390FFE743F617
:103660000000C4F20200006800F000710020B0EB1E
:10367000516F0CD1FFE7FEF7B1FA0399401A032806
:1036800004D3FFE703208DF8170074E0E7E721E09B
:103690006021C4F2472100200860FEF79FFA0390E2
:1036A000FFE743F60000C4F20200006800F000717A
:1036B0000020B0EB516F0CD0FFE7FEF78FFA0399B3
:1036C000401A032804D3FFE703208DF8170052E0C7
:1036D000E7E7FFE74AE004988069012804D1FFE7A3
:1036E00001208DF8170046E043F60400C4F2020002
:1036F0000068029004988069012831D0FFE70298A1
:1037000000F480000499C969884229D1FFE7029832
:1037100000F03F000499096A884221D1FFE702982E
:1037200047F6C07108400499496AB0EB811F17D170
:10373000FFE7029800F440300499896AC9034FF604
:10374000FF729143A1F58031884209D1FFE70298C9
:1037500000F070600499C96AB0EB016F04D0FFE714
:1037600001208DF8170006E0FFE7FFE7FFE70020E4
:103770008DF81700FFE79DF8170006B080BD000028
:1037800080B582B00190019801F004FF02B080BDC5
:1037900085B003900291FFE7039890F83C00012860
:1037A00004D1FFE702208DF813006CE0039901209B
:1037B00081F83C00FFE7FFE70399022081F83D0014
:1037C0000398006840680190039800688068009042
:1037D000019820F070000190029801680198084358
:1037E00001900198039909684860039800680021D6
:1037F000C4F2010188422AD0FFE703980068B0F1C3
:10380000804F24D0FFE70398006840F20041C4F2E3
:10381000000188421BD0FFE70398006840F60001D2
:10382000C4F20001884212D0FFE70398006840F616
:103830000041C4F20001884209D0FFE70398006804
:1038400044F20001C4F2010188420ED1FFE7009862
:1038500020F0800000900298416800980843009092
:103860000098039909688860FFE70399012081F8AF
:103870003D00FFE70399002081F83C00FFE70020AE
:103880008DF81300FFE79DF8130005B070470000A6
:1038900080B58CB00B9000200A900990089007909A
:1038A00006900B98006840F20041C4F20001884283
:1038B00043D1FFE7FFE70020059043F63000C4F254
:1038C0000200016841F001010160006800F00100A0
:1038D00005900598FFE7FFE70020049043F63000CD
:1038E000C4F20200016841F002010160006800F0CA
:1038F000020004900498FFE7C02006900220029086
:10390000079000210191089109910A900020C4F2CA
:10391000020006A90391FDF797FF019A0298039907
:10392000032306930790089209920A9040F2004000
:10393000C4F20200FDF788FFFFE70CB080BD000075
:1039400080B586B004900391029200208DF80700A4
:10395000FFE7049890F83C00012804D1FFE702201B
:103960008DF8170089E00499012081F83C00FFE7F9
:10397000FFE7029800900C2800F270800099DFE8C1
:1039800001F0076D6D6D206D6D6D3A6D6D6D5300BD
:1039900004980068039901F051FF04980168886950
:1039A00040F00800886104980168886920F00400EC
:1039B00088610398026904980168886910438861E6
:1039C00050E004980068039901F09EFF0498016894
:1039D000886940F40060886104980168886920F46F
:1039E000806088610398026904980168886940EAE8
:1039F0000220886136E004980068039901F0EEFF28
:103A000004980168C86940F00800C861049801681A
:103A1000C86920F00400C86103980269049801682D
:103A2000C8691043C8611DE004980068039902F05A
:103A30003FF804980168C86940F40060C8610498C0
:103A40000168C86920F48060C8610398026904981D
:103A50000168C86940EA0220C86103E001208DF8CE
:103A60000700FFE7FFE70499002081F83C00FFE72B
:103A70009DF807008DF81700FFE79DF8170006B0C6
:103A800080BD000080B582B00090009820B9FFE7AB
:103A900001208DF807003FE0009890F83D0040B904
:103AA000FFE70099002081F83C00009800F038F80A
:103AB000FFE70099022081F83D00009951F8040BBE
:103AC00001F0FEFD0099012081F84600FFE7009912
:103AD000012081F83E00009981F83F00009981F8AB
:103AE0004000009981F84100FFE7FFE700990120BD
:103AF00081F84200009981F84300009981F8440060
:103B0000009981F84500FFE70099012081F83D0008
:103B100000208DF80700FFE79DF8070002B080BD88
:103B200082B001900198006840F20041C4F20001A7
:103B3000884212D1FFE7FFE70020009043F64000E3
:103B4000C4F20200016841F002010160006800F067
:103B5000020000900098FFE7FFE702B07047000006
:103B600080B58AB008900791079828B9FFE70898B0
:103B700090F83E0005901CE00798042805D1FFE767
:103B8000089890F83F00049010E00798082805D1A5
:103B9000FFE7089890F84000039004E0089890F838
:103BA00041000390FFE703980490FFE70498059015
:103BB000FFE70598012804D0FFE701208DF82700D2
:103BC0008AE0079828B9FFE70899022081F83E00AB
:103BD0001EE00798042806D1FFE70899022081F823
:103BE0003F00029012E00798082806D1FFE70899E5
:103BF000022081F84000019005E00899022081F838
:103C000041000190FFE701980290FFE70298FFE76B
:103C1000089800680799012201F0F4FD08980068EF
:103C20000021C4F20101884207D1FFE7089801682A
:103C3000486C40F400404864FFE7089800680021A1
:103C4000C4F2010188422AD0FFE708980068B0F169
:103C5000804F24D0FFE70898006840F20041C4F28A
:103C6000000188421BD0FFE70898006840F6000179
:103C7000C4F20001884212D0FFE70898006840F6BD
:103C80000041C4F20001884209D0FFE708980068AB
:103C900044F20001C4F20101884212D1FFE7089802
:103CA0000068806800F0070006900698062807D094
:103CB000FFE708980168086840F001000860FFE726
:103CC00006E008980168086840F001000860FFE716
:103CD00000208DF82700FFE79DF827000AB080BD7F
:103CE00082B00190ADF8021002B0704781B0009030
:103CF00001B0704780B592B01190119800680068CB
:103D0000109011980068C0680F9011980068406981
:103D10000E9000200D900C90109800F00F000D9068
:103D20000D9888B9FFE79DF84000800600280AD565
:103D3000FFE79DF83C008006002804D5FFE71198B6
:103D400001F06CFF02E2FFE70D98002800F0C2804E
:103D5000FFE79DF83800C00738B9FFE7BDF83C0021
:103D600010F4907F00F0B680FFE79DF84000C00798
:103D700058B1FFE79DF83D00C00730B1FFE711994A
:103D8000486C40F001004864FFE79DF840004007A0
:103D900000280BD5FFE79DF83800C00730B1FFE7DA
:103DA0001199486C40F002004864FFE79DF840001C
:103DB000800700280BD5FFE79DF83800C00730B119
:103DC000FFE71199486C40F004004864FFE79DF854
:103DD00040000007002811D5FFE79DF83C00800651
:103DE000002805D4FFE79DF83800C00730B1FFE791
:103DF0001199486C40F008004864FFE71198406C46
:103E0000002866D0FFE79DF84000800600280AD50C
:103E1000FFE79DF83C008006002804D5FFE71198D5
:103E200001F0FCFEFFE7119800684069C0F38010C4
:103E30000C901198406C0007002804D4FFE70C9800
:103E400000283ED0FFE7119801F08AFE1198006823
:103E50004069400600282FD5FFE7FFE7FFE71198EC
:103E6000006850E8050F20F040000B90FFE70B9929
:103E70001198026842E805100028F0D1FFE7FFE73B
:103E80001198C06B98B1FFE71198C16B45F64530AA
:103E9000C0F6000008651198C06BFDF791FC28B1D1
:103EA000FFE71198C06B016D8847FFE703E01198A9
:103EB000FFF71CFFFFE703E01198FFF717FFFFE78D
:103EC00006E01198FFF712FF119900204864FFE700
:103ED000FFE73BE11198006B012840F01781FFE7F5
:103EE0009DF84000C006002840F11081FFE79DF8D2
:103EF0003C00C006002840F10981FFE7FFE70020F1
:103F00000A901198006800680A901198006840684B
:103F10000A900A98FFE71198006840694006002857
:103F200040F19A80FFE71198C06B00684068ADF8D7
:103F30002600BDF82600002875D0FFE7BDF8260052
:103F40001199898D88426EDAFFE7BDF82600119934
:103F5000C8851198C06BC069B0F5807F58D0FFE765
:103F6000FFE7FFE71198006850E8030F20F4807026
:103F70000890FFE708991198026842E803100028AA
:103F8000F0D1FFE7FFE7FFE7FFE71198006850E88F
:103F9000050F20F001000790FFE7079911980268CC
:103FA00042E805100028F0D1FFE7FFE7FFE7FFE751
:103FB0001198006850E8050F20F040000690FFE7D8
:103FC00006991198026842E805100028F0D1FFE731
:103FD000FFE71199202081F8420011990020086321
:103FE000FFE7FFE71198006850E8030F20F010008A
:103FF0000590FFE705991198026842E80310002830
:10400000F0D1FFE7FFE71198C06BFDF763FBFFE717
:104010001199022048631198818DC28D891A89B245
:10402000FFF75EFE17E0BDF826001199898D8842E2
:1040300010D1FFE71198C06BC069B0F5807F08D13F
:10404000FFE71199022048631198818DFFF748FE20
:10405000FFE7FFE7FFE779E01199888DC98D401AE6
:10406000ADF812001198C08D00284ED0FFE7BDF8C2
:104070001200002849D0FFE7FFE7FFE7119800682A
:1040800050E8030F20F490700390FFE70399119814
:10409000026842E803100028F0D1FFE7FFE7FFE7DE
:1040A000FFE71198006850E8050F20F0010002902A
:1040B000FFE702991198026842E805100028F0D144
:1040C000FFE7FFE71199202081F8420011990020B5
:1040D0000863FFE7FFE71198006850E8030F20F03E
:1040E00010000190FFE701991198026842E803105F
:1040F0000028F0D1FFE7FFE71199022048631198EB
:10410000BDF81210FFF7ECFDFFE71FE09DF840003F
:10411000000600280AD5FFE79DF83C0000060028AD
:1041200004D5FFE7119801F0CBFE0FE09DF84000A9
:10413000400600280AD5FFE79DF83C00400600280D
:1041400004D5FFE7119801F055FDFFE712B080BDDF
:1041500080B582B00090009820B9FFE701208DF86B
:10416000070040E00098806908B1FFE700E0FFE742
:10417000009890F8410040B9FFE70099002081F8CD
:104180004000009800F034F8FFE70099242081F8FF
:10419000410000980168C86820F40050C860009889
:1041A00001F0F0FD00980168086920F49040086172
:1041B00000980168486920F02A0048610098016869
:1041C000C86840F40050C860009900204864009A14
:1041D000202182F84110009A82F842100099486329
:1041E0008DF80700FFE79DF8070002B080BD0000D2
:1041F00080B58AB00990002008900790069005903D
:1042000004900998006841F20001C4F2010188425B
:104210003ED1FFE7FFE70020039043F64400C4F2DD
:104220000200016841F010010160006800F0100018
:1042300003900398FFE7FFE70020029043F6300069
:10424000C4F20200016841F001010160006800F061
:10425000010002900298FFE74FF4C0600490022032
:1042600005900020009006900320079007200890FA
:104270000020C4F2020004A9FDF7E6FA009A252006
:1042800001901146FEF72AFD0198FEF71DFDFFE79C
:104290000AB080BD81B0009001B0704780B58AB08F
:1042A00008900791ADF81A20059300200290089815
:1042B00090F84100202840F08180FFE7079820B166
:1042C000FFE7BDF81A0020B9FFE701208DF82700AD
:1042D00078E00899002048640899212081F841007D
:1042E000FDF77CFC0290BDF81A0008998884BDF89F
:1042F0001A000899C88408988068B0F5805F09D1D1
:10430000FFE70898006928B9FFE7002004900798A4
:10431000039004E00798049000200390FFE7FFE774
:104320000898C08C78B3FFE70898029B05996A4605
:1043300011608021002201F00DFE40B1FFE70899D5
:10434000202081F8410003208DF827003AE00498EE
:1043500058B9FFE7039800886FF35F200899096850
:10436000486003980230039008E0049800780899A8
:1043700009684860049801300490FFE70899C88CE8
:104380000138C884CCE70898029B05996A461160F9
:104390004021002201F0DEFD40B1FFE70899202016
:1043A00081F8410003208DF827000BE008992020B8
:1043B00081F8410000208DF8270003E002208DF8ED
:1043C0002700FFE79DF827000AB080BD81B000906C
:1043D00001B0704710B58AB070208DF8260069468C
:1043E000642007908860012306934B600DF126003E
:1043F0000490086040F29800C2F2000008903C214E
:10440000059100220392FEF785FADDF80CC0049AAC
:104410000599069BDDF81CE008988DF826C0EC464F
:10442000CCF808E0CCF80430CCF800200222FEF7EB
:1044300071FA0AB010BD000080B586B069466420EC
:104440008860062048600DF11200086040F2980074
:10445000C2F200003C2103220123FEF737F810BB13
:10446000FFE79DF812109DF8130040EA012040F28A
:104470009201C2F2000108809DF814109DF8150009
:1044800040EA012040F29601C2F2000108809DF846
:1044900016109DF8170040EA012040F29401C2F284
:1044A00000010880FFE706B080BD0000FFE7FEE7DF
:1044B00082B0009000980068406900F4806101209B
:1044C000B0EB912F1ED1FFE7009801686FF4806078
:1044D0004861009900200863009A202182F83D106D
:1044E000009981F83E000099086C40F004000864CF
:1044F000FFE70099002081F83C00FFE701208DF8DC
:10450000070003E000208DF80700FFE79DF8070093
:1045100002B0704780B588B00690ADF816100492CE
:1045200003930698C06A029006980168086840F4F0
:10453000806008600298082809D0FFE702980128E7
:1045400005D0FFE7029810F5803F07D1FFE70698F6
:104550000168086840F4807008600DE00698006B00
:10456000112807D1FFE706980168086840F48070B9
:10457000086000E0FFE7FFE70698049B03996A469E
:1045800011604FF00111002200F00AFB80B1FFE73B
:10459000069800680068C005002805D5FFE7069961
:1045A0004FF400700864FFE703208DF81F0082E0DD
:1045B00006980069B0F5804F08D1FFE79DF8160016
:1045C00040F0010006990968086162E0BDF8160034
:1045D00000F44070C009F030069909680861069837
:1045E000049A039B0821C0F2010100F05DFB20B199
:1045F000FFE701208DF81F005DE09DF81600069989
:10460000096808610698049A039B0221C0F201011F
:1046100000F04AFB20B1FFE701208DF81F004AE0BF
:10462000FFE7002001900698006840690190069815
:104630000068806901900198FFE7069801680868A2
:1046400040F4807008600698049B03996A461160E4
:104650004FF00111002200F0A3FA80B1FFE70698A5
:1046600000680068C005002805D5FFE706994FF4EB
:1046700000700864FFE703208DF81F001BE0BDF801
:10468000160000F44070C009F1300699096808610D
:10469000FFE70698049A039B0221C0F2010100F093
:1046A00003FB20B1FFE701208DF81F0003E000208D
:1046B0008DF81F00FFE79DF81F0008B080BD0000C7
:1046C00080B588B00690ADF8161004920393069852
:1046D000C06A02900298082809D0FFE702980128D2
:1046E00005D0FFE7029810F5803F07D1FFE7069855
:1046F0000168086840F4807008600DE00698006B5F
:10470000122807D1FFE706980168086840F4807016
:10471000086000E0FFE7FFE70698049B03996A46FC
:1047200011604FF00111002200F03AFA80B1FFE76A
:10473000069800680068C005002805D5FFE70699BF
:104740004FF400700864FFE703208DF81F003CE081
:1047500006980069B0F5804F08D1FFE7BDF8160054
:1047600000F0FE000699096808611CE0BDF816001B
:1047700000F44070C009F030069909680861069895
:10478000049A039B0821C0F2010100F08DFA20B1C8
:10479000FFE701208DF81F0017E09DF8160006992D
:1047A00009680861FFE70698049A039B0221C0F29A
:1047B000010100F079FA20B1FFE701208DF81F0018
:1047C00003E000208DF81F00FFE79DF81F0008B0F0
:1047D00080BD000080B586B0DDF824C0DDF820C0C3
:1047E0000490ADF80E10ADF80C20ADF80A30049826
:1047F0000168086840F480600860049801680868EF
:1048000040F4807008600498089B09996A4611601A
:104810004FF00111002200F0C3F980B1FFE70498C6
:1048200000680068C005002805D5FFE704994FF42B
:1048300000700864FFE703208DF81700B7E0BDF8AB
:104840000E0000F0FE000499096808610498089AB7
:10485000099B0221C0F2010100F026FA20B1FFE716
:1048600001208DF81700A2E0FFE7002001900498D6
:10487000006840690190049800688069019001987F
:10488000FFE704980899099A00F026FB80B1FFE73A
:104890000498006C042807D1FFE7049801680868B1
:1048A00040F400700860FFE701208DF817007EE0FB
:1048B000BDF80A00012806D1FFE79DF80C00049915
:1048C0000968086121E09DF80D00049909680861F4
:1048D00004980899099A00F0FFFA80B1FFE704985C
:1048E000006C042807D1FFE704980168086840F4C9
:1048F00000700860FFE701208DF8170057E09DF871
:104900000C00049909680861FFE704980899099A5E
:1049100000F0E2FA80B1FFE70498006C042807D1A8
:10492000FFE704980168086840F400700860FFE73A
:1049300001208DF817003AE004980168086840F4F7
:10494000807008600498089B09996A4611604FF0CE
:104950000111002200F024F980B1FFE704980068FB
:104960000068C005002805D5FFE704994FF40070E2
:104970000864FFE703208DF8170018E09DF80E008B
:1049800040F001000499096808610498089A099B9D
:104990000221C0F2010100F087F920B1FFE70120F8
:1049A0008DF8170003E000208DF81700FFE79DF851
:1049B000170006B080BD000080B586B0DDF824C0C9
:1049C000DDF820C00490ADF80E10ADF80C20ADF865
:1049D0000A3004980168086840F480700860049800
:1049E000089B09996A4611604FF00111002200F0FE
:1049F000D7F880B1FFE7049800680068C005002878
:104A000005D5FFE704994FF400700864FFE7032021
:104A10008DF8170069E0BDF80E0000F0FE00049963
:104A2000096808610498089A099B0221C0F20101F3
:104A300000F03AF920B1FFE701208DF8170054E0AB
:104A4000FFE70020019004980068406901900498F5
:104A50000068806901900198FFE704980899099A15
:104A600000F03AFA80B1FFE70498006C042807D1FF
:104A7000FFE704980168086840F400700860FFE7E9
:104A800001208DF8170030E0BDF80A00012806D19A
:104A9000FFE79DF80C0004990968086121E09DF882
:104AA0000D0004990968086104980899099A00F0B2
:104AB00013FA80B1FFE70498006C042807D1FFE7E0
:104AC00004980168086840F400700860FFE701205E
:104AD0008DF8170009E09DF80C0004990968086139
:104AE000FFE700208DF81700FFE79DF8170006B0DC
:104AF00080BD000080B584B0029001910092FFE774
:104B000002980068406900F004010020B0EB910FAA
:104B10003ED1FFE70298FFF7CBFC20B1FFE7012071
:104B20008DF80F0038E00198013080B3FFE7FDF702
:104B300055F80099401A0199884203D8FFE7019877
:104B400020BBFFE702980068406900F004010020E4
:104B5000B0EB910F19D1FFE7029900200863029A88
:104B6000202182F83D10029981F83E000299086CDC
:104B700040F020000864FFE70299002081F83C0023
:104B8000FFE701208DF80F0006E0FFE7FFE7B7E73A
:104B900000208DF80F00FFE79DF80F0004B080BDE6
:104BA00080B588B0DDF828C0069005918DF81320F7
:104BB0000393FFE79DF8160001280CD1FFE7069844
:104BC00000684069BDF814100840401AB0FA80F03F
:104BD000400902900BE0069800688069BDF8141047
:104BE0000840401AB0FA80F040090290FFE70298AE
:104BF0009DF8131088424FD1FFE703980130002839
:104C000049D0FFE7FCF7EAFF0A99401A0399884266
:104C100003D8FFE70398E8BBFFE79DF816000128DB
:104C20000CD1FFE7069800684069BDF814100840F1
:104C3000401AB0FA80F0400901900BE00698006835
:104C40008069BDF814100840401AB0FA80F040099D
:104C50000190FFE701989DF81310884219D1FFE7F2
:104C6000069900200863069A202182F83D100699D3
:104C700081F83E000699086C40F020000864FFE7C8
:104C80000699002081F83C00FFE701208DF81F0005
:104C900006E0FFE7FFE78DE700208DF81F00FFE744
:104CA0009DF81F0008B080BD80B588B006900591C2
:104CB00004920393FFE79DF8160001280CD1FFE74B
:104CC000069800684069BDF814100840401AB0FA10
:104CD00080F0400902900BE0069800688069BDF8FA
:104CE00014100840401AB0FA80F040090290FFE723
:104CF000029800287AD1FFE706980068406900F41E
:104D000080610120B0EB912F24D1FFE70698016864
:104D1000086840F400700860069801686FF48060CD
:104D20004861069900200863069A202182F83D1008
:104D3000069981F83E000699086C40F0040008646A
:104D4000FFE70699002081F83C00FFE701208DF87D
:104D50001F004FE004980130002846D0FFE7FCF721
:104D60003DFF0399401A0499884203D8FFE704984D
:104D7000D0BBFFE79DF8160001280CD1FFE706988D
:104D800000684069BDF814100840401AB0FA80F07D
:104D9000400901900BE0069800688069BDF8141086
:104DA0000840401AB0FA80F040090190FFE70198EE
:104DB000C8B9FFE7069900200863069A202182F807
:104DC0003D10069981F83E000699086C40F02000DD
:104DD0000864FFE70699002081F83C00FFE7012006
:104DE0008DF81F0006E0FFE7FFE764E700208DF87D
:104DF0001F00FFE79DF81F0008B080BD80B584B09C
:104E0000029001910092FFE702980068406900F06B
:104E100040010020B0EB911F56D1FFE702980068D7
:104E2000406900F010010120B0EB111F1CD1FFE719
:104E3000029801686FF01000486102990020086331
:104E4000029A202182F83D10029981F83E000299D1
:104E5000086C0864FFE70299002081F83C00FFE736
:104E600001208DF80F0033E0FCF7B8FE0099401ADE
:104E70000199884203D8FFE7019820BBFFE7029819
:104E80000068406900F040010020B0EB911F19D18B
:104E9000FFE7029900200863029A202182F83D1062
:104EA000029981F83E000299086C40F020000864E5
:104EB000FFE70299002081F83C00FFE701208DF810
:104EC0000F0005E0FFE79FE700208DF80F00FFE7E8
:104ED0009DF80F0004B080BD80B584B002900191B0
:104EE0000092FFE7029800684069C1B20020B0EB71
:104EF000D11F3DD1FFE70298FFF7DAFA20B1FFE7B3
:104F000001208DF80F0037E00198013078B3FFE7FA
:104F1000FCF764FE0099401A0199884203D8FFE724
:104F2000019818BBFFE7029800684069C1B20020F1
:104F3000B0EBD11F19D1FFE7029900200863029A54
:104F4000202182F83D10029981F83E000299086CF8
:104F500040F020000864FFE70299002081F83C003F
:104F6000FFE701208DF80F0006E0FFE7FFE7B9E754
:104F700000208DF80F00FFE79DF80F0004B080BD02
:104F800080B58AB069466420886001234B600DF1CA
:104F90002500086040F29800C2F20000D02175227E
:104FA000FDF794FA28B9FFE79DF82500682801D09D
:104FB000FFE72FE000208DF8260069466420089066
:104FC0008860012307934B600DF126000490086070
:104FD00040F29800C2F200000590D02106916B22A9
:104FE000FDF798FC0A20FCF70DFC049A0598069939
:104FF000079BDDF820E04FF0020C8DF826C0EC4650
:10500000CCF808E0CCF80430CCF800203722FDF7CB
:1050100081FCFFE70AB080BD80B588B06946642096
:1050200088600E2048600DF11200086040F2980080
:10503000C2F20000D0213B220123FDF747FA0028ED
:1050400043D1FFE79DF812109DF8130040EA0120BC
:1050500040F27001C2F2000108809DF814109DF822
:10506000150040EA012040F27201C2F200010880FE
:105070009DF816109DF8170040EA012040F27401D7
:10508000C2F2000108809DF81A109DF81B0040EA4A
:10509000012040F28C01C2F2000108809DF81C1032
:1050A0009DF81D0040EA012040F28E01C2F200018D
:1050B00008809DF81E109DF81F0040EA012040F274
:1050C0009001C2F200010880FFE708B080BD000037
:1050D00080B586B069466420086040F29800C2F24C
:1050E0000000EE211E220123FDF7EAF80520FCF75F
:1050F00089FB00208DF81500FFE79DF815000528B5
:1051000036DCFFE79DF81510A02000EB41008DF87C
:105110001400694664200290086040F29800C2F2D0
:1051200000000490EE21039105AA0123FDF7C8F8C1
:10513000029A039904986B461A600DF11602022335
:10514000FCF7A4FE9DF816109DF8170040EA012018
:105150009DF8152040F27601C2F2000101EB4201F8
:105160004880FFE79DF8150001308DF81500C4E771
:1051700006B080BD80B58CB0694664200790086099
:1051800040F29800C2F200000990EE2108914822F6
:1051900001230693FDF794F80A20FCF733FB069BE6
:1051A000079A099808994FF0000C8DF82CC0EC462E
:1051B000CCF800200BAAFDF783F8079A0899099804
:1051C0006B461A600DF12D020323FCF75FFE80B9D8
:1051D000FFE79DF82D009DF82E209DF82F1000046C
:1051E00040EA0220084440F28401C2F20001086053
:1051F000FFE7694664200390086040F29800C2F21D
:1052000000000590EE210491582201230293FDF73E
:1052100057F80A20FCF7F6FA029B039A05980499BE
:105220004FF0000C8DF82BC0EC46CCF800200DF1AF
:105230002B02FDF745F8039A049905986B461A600E
:105240000DF12D020323FCF721FE80B9FFE79DF845
:105250002D009DF82E209DF82F10000440EA02201A
:10526000084440F28801C2F200010860FFE70CB078
:1052700080BD000080B58CB000200B900A90099092
:1052800008900790FFE70020069043F63000C4F234
:105290000200016841F080010160006800F08000B8
:1052A00006900698FFE7FFE70020059043F63000E0
:1052B000C4F20200016841F001010160006800F0E1
:1052C000010005900598FFE7FFE70020049043F6F2
:1052D0003000C4F20200016841F002010160006880
:1052E00000F0020004900498FFE70020C4F20200DE
:1052F00003902021019101220292FCF757FC019AB0
:105300000299039807920891002109910A9107A92F
:10531000FCF79AFA0CB080BD80B582B040F29800DC
:10532000C2F20000019045F20041C4F200010160A8
:1053300048F2A061C0F20101416000218160C160BA
:105340004FF48042026141618161C1610162FCF7F9
:105350004BFC18B1FFE7FCF7B9F9FFE702B080BDDD
:1053600080B58AB0002100910991089107910691BA
:105370000591049103910291019140F2EC00C2F277
:10538000000040F20042C4F2000202605322426078
:10539000816044F61F62C26001618161FEF772FBA9
:1053A00018B1FFE7FCF792F9FFE700200890099099
:1053B00040F2EC00C2F2000008A9FEF7E9F918B1CA
:1053C000FFE7FCF783F9FFE76020019000220292DB
:1053D0000392059240F2EC00C2F2000001A9FEF730
:1053E000AFFA18B1FFE7FCF771F9FFE740F2EC0004
:1053F000C2F2000001A90422FEF7A2FA18B1FFE7E9
:10540000FCF764F9FFE740F2EC00C2F2000001A9EA
:105410000822FEF795FA18B1FFE7FCF757F9FFE706
:1054200040F2EC00C2F2000001A90C22FEF788FA5B
:1054300018B1FFE7FCF74AF9FFE740F2EC00C2F2CF
:105440000000FEF725FA0AB080BD000080B582B0EA
:1054500040F23410C2F20000019041F20001C4F2A7
:10546000010101604FF41651416000218160C1606B
:1054700001610C2242618161C161FEF769FE18B1D0
:10548000FFE7FCF723F9FFE702B080BDFFE7FEE787
:1054900085B004900391ADF80A2004980068C06AB2
:1054A000ADF80800BDF80A00BDF80810884205DD17
:1054B000FFE7BDF80800ADF80A00FFE7039830B930
:1054C000FFE7BDF80A0004990968486324E00398DF
:1054D000042808D1FFE7BDF80A100846049A1268AC
:1054E0009163019016E00398082808D1FFE7BDF802
:1054F0000A100846049A1268D163009007E0BDF8CC
:105500000A100846049A126811640090FFE7009898
:105510000190FFE70198FFE705B07047FFE7FEE75E
:1055200088B0079006910592079800F00700049054
:105530000498C0F10700052803D3FFE70420019079
:1055400004E00498C0F107000190FFE70198039080
:1055500004980430062803D8FFE70020009003E0F9
:10556000049803380090FFE700980290069803998A
:10557000012202FA01F101390840029B9840059985
:105580009A40013A1140084308B070477047000044
:105590007047000080B582B0009000980138B0F1EB
:1055A000807F03D3FFE70120019019E000980138C4
:1055B0004EF21401CEF2000108604FF0FF300F21CF
:1055C00000F060FD4EF21801CEF2000100200860EC
:1055D0004EF21002CEF20002072111600190FFE7A7
:1055E000019802B080BD000080B5FDF7E5FA80BDEE
:1055F00080B594B008A83021FAF79AFF00200790F0
:105600000690059004900390FFE70020029043F677
:105610004000C4F20200016841F08051016000685E
:1056200000F0805002900298FFE7FFE70020019011
:1056300047F20000C4F200000168022262F38F31D9
:105640000160006800F4404001900198FFE70120EC
:1056500008904FF48030099002200E904FF48000A3
:105660000F90082010904FF4A87011900420129011
:10567000139008A8FDF724FD18B1FFE7FCF726F802
:10568000FFE70F20039002210491002005904FF4C2
:1056900080520692079003A8FDF742FB18B1FFE77E
:1056A000FCF714F8FFE714B080BD00004EF68851F7
:1056B000CEF20001086840F47000086070470000F6
:1056C00083B0029001910298006800900298002136
:1056D000C4F2010188421DD0FFE70298B0F1804F6B
:1056E00018D0FFE7029840F20041C4F2000188425E
:1056F00010D0FFE7029840F60001C4F20001884292
:1057000008D0FFE7029840F60041C4F20001884249
:105710000AD1FFE7009820F07000009001984168DE
:10572000009808430090FFE702980021C4F20101AD
:10573000884235D0FFE70298B0F1804F30D0FFE7C4
:10574000029840F20041C4F20001884228D0FFE7ED
:10575000029840F60001C4F20001884220D0FFE721
:10576000029840F60041C4F20001884218D0FFE7D9
:10577000029844F20001C4F20101884210D0FFE710
:10578000029844F20041C4F20101884208D0FFE7C8
:10579000029844F60001C4F2010188420AD1FFE7F1
:1057A000009820F4407000900198C1680098084368
:1057B0000090FFE7009820F08000019949690843B4
:1057C0000090019880680299C86201980068029967
:1057D000886202980021C4F20101884205D1FFE7E6
:1057E0000198006902990863FFE70299086840F090
:1057F000040008600299012048610098029908603D
:1058000003B0704784B0039002910192029800F0B7
:105810001F01012088400090009A0399086A904374
:1058200008620198029901F01F0100FA01F2039940
:10583000086A1043086204B07047000085B0049005
:1058400003910498006A01900499086A20F001000D
:105850000862049840680090049880690290029859
:1058600020F070000290029820F00300029003984C
:105870000168029808430290019820F0020001900C
:105880000398816801980843019004980021C4F2AC
:10589000010188420ED1FFE7019820F00800019035
:1058A0000398C168019808430190019820F0040012
:1058B0000190FFE704980021C4F20101884213D14E
:1058C000FFE7009820F480700090009820F40070AA
:1058D00000900398416900980843009003988169FB
:1058E000009808430090FFE70098049948600298E8
:1058F0000499886103984068049948630198049961
:10590000086205B07047000085B0049003910498C8
:10591000006A01900499086A20F010000862049857
:1059200040680090049880690290029820F4E0405A
:105930000290029820F44070029003980168029847
:1059400040EA01200290019820F020000190039885
:105950008168019840EA0110019004980021C4F286
:10596000010188420FD1FFE7019820F080000190EB
:105970000398C168019840EA01100190019820F055
:1059800040000190FFE704980021C4F20101884221
:1059900015D1FFE7009820F480600090009820F473
:1059A0000060009003984169009840EA81000090EF
:1059B00003988169009840EA81000090FFE7009811
:1059C0000499486002980499886103984068049992
:1059D000886301980499086205B0704785B0049007
:1059E00003910498006A01900499086A20F4807079
:1059F00008620498406800900498C0690290029878
:105A000020F070000290029820F0030002900398AA
:105A10000168029808430290019820F400700190F8
:105A200003988168019840EA0120019004980021C0
:105A3000C4F2010188420FD1FFE7019820F4006011
:105A400001900398C168019840EA012001900198F3
:105A500020F480600190FFE704980021C4F2010166
:105A6000884215D1FFE7009820F4805000900098FC
:105A700020F40050009003984169009840EA01101A
:105A8000009003988169009840EA01100090FFE7B8
:105A900000980499486002980499C8610398406886
:105AA0000499C86301980499086205B07047000022
:105AB00085B0049003910498006A01900499086AE3
:105AC00020F4805008620498406800900498C069EF
:105AD0000290029820F4E0400290029820F4407076
