:020000040800F2
:10000000B817002071020008790200087B0200087E
:100010007D0200087F020008810200080000000045
:100020000000000000000000000000008302000843
:10003000850200080000000087020008890200080D
:100040008B0200088B0200088B0200088B0200085C
:100050008B0200088B0200088B0200088B0200084C
:100060008B0200088B0200088B0200088B0200083C
:100070008B0200088B0200088B0200088B0200082C
:100080008B0200088B0200088B02000800000000B1
:100090000000000000000000000000008B020008CB
:1000A0008B0200088B0200088B0200088B020008FC
:1000B0008B0200088B0200088B0200088B020008EC
:1000C0008B0200088B0200088B0200088B020008DC
:1000D0008B0200088B0200088B0200080000000061
:1000E0008B0200088B0200088B0200080000000051
:1000F0000000000000000000000000008B0200086B
:10010000000000008B0200088B0200088B02000830
:1001100000000000000000000000000000000000DF
:100120008B0200088B0200088B0200088B0200087B
:100130008B0200080000000000000000000000002A
:100140000000000000000000000000008B0200081A
:100150008B0200088B0200088B0200088B0200084B
:100160008B0200088B020008000000000000000065
:10017000000000000000000000000000000000007F
:10018000000000008B0200080000000000000000DA
:100190008B02000800F002F800F044F814A696E87C
:1001A000000CB244B344DA4501D100F03BF8BAE8A0
:1001B0000F000FA696E83000A5EB040504EB060738
:1001C000AAEB0704A7F101074FEA15154FEA34140B
:1001D000A4F10104AC4201D300F024F813F0010FA4
:1001E00018BFFB1A43F0010300F001F8DBE71847E2
:1001F00008160000181600007047000000230024B5
:1002000000250026103A28BF78C1FBD8520728BF26
:1002100030C148BF0B6070471FB501F022FA1FBD07
:1002200010B510BD00F047F81146FFF7F5FF01F0DB
:10023000FFF900F065F803B4FFF7F2FF03BC00F02C
:100240006DF80000094801680A68B2E8F00F82F30F
:100250000988022080F31488BFF36F8F62B6BDE86F
:100260000F5006BC0847704770470000B8020020D6
:100270000948804709480047FEE7FEE7FEE7FEE73A
:10028000FEE7FEE7FEE7FEE7FEE7FEE70448054976
:10029000054A064B70470000091600089501000842
:1002A000B8110020B8170020B8130020B8130020A0
:1002B000704770477047754600F02CF8AE46050051
:1002C0006946534620F00700854618B020B5FFF771
:1002D000DDFFBDE820404FF000064FF000074FF073
:1002E00000084FF0000BAC46ACE8C009ACE8C00910
:1002F000ACE8C009ACE8C00921F007018D467047A1
:1003000010B50446AFF300802046BDE81040FFF76B
:1003100092BF0000004870470000002001491820EB
:10032000ABBEFEE7260002007047000043F6300136
:10033000C4F20201086840F0010008600021C4F224
:100340000201086820F440600860086840F480609A
:10035000086070471421C4F20201086840F02000D0
:100360000860704781B041F27E60C0F600000090E6
:1003700041F28060C0F60000009041F28660C0F655
:100380000000009041F28A60C0F60000009041F247
:100390008460C0F60000009041F28C60C0F600005E
:1003A000009041F28E60C0F60000009041F288603B
:1003B000C0F60000009041F29060C0F6000000908E
:1003C00041F29260C0F60000009041F29860C0F6E1
:1003D0000000009041F29A60C0F60000009041F2E7
:1003E0009460C0F60000009041F29660C0F60000F4
:1003F000009041F29C60C0F60000009041F29E60C7
:10040000C0F60000009041F2A060C0F6000000902D
:1004100041F2A260C0F60000009041F2A460C0F674
:100420000000009041F2A660C0F60000009041F28A
:10043000A860C0F60000009041F2AA60C0F600007B
:10044000009041F2AC60C0F60000009041F2AE6056
:10045000C0F60000009041F2B060C0F600000090CD
:1004600041F2B260C0F60000009041F2B460C0F604
:100470000000009041F2B660C0F60000009041F22A
:10048000B860C0F60000009041F2BE60C0F6000007
:10049000009041F2C060C0F60000009041F2C260DE
:1004A000C0F60000009041F2C460C0F60000009069
:1004B00041F2CA60C0F60000009041F2C660C0F68A
:1004C0000000009041F2C860C0F60000009041F2C8
:1004D000CC60C0F60000009041F2D060C0F6000091
:1004E000009041F2CE60C0F60000009041F2D26070
:1004F000C0F60000009041F2BA60C0F60000009023
:1005000041F2BC60C0F60000009041F2D460C0F639
:100510000000009041F2D660C0F60000009041F269
:10052000D870C0F60000009041F27C60C0F6000078
:10053000009001B07047000080B500F017F800F09F
:1005400045FC00F07DFC00F0B1FC00F0E5FB00F0A4
:100550008FFB00F06BFD00F0B7FD00F005FD00F033
:1005600029FD00F005F8FFF7FDFE80BD7047000093
:100570007047000080B540F2AD20C2F20000007864
:1005800008BBFFE700F02CFE40F23D20C2F2000065
:10059000017840F23C22C2F200021170017840F270
:1005A000C020C2F2000050F8211040F2B820C2F280
:1005B00000000160006840F2B021C2F20001086052
:1005C000FFF740FEFFE780BD7047000080B58CB0AC
:1005D0000A90099108928DF81F309DF81F0040285D
:1005E00004D3FFE72A208DF82F0062E0FFE7FFE742
:1005F00040F2BC10C2F20000007830B1FFE7FFE724
:10060000FFE73C208DF82F0053E09DF81F1040F2CB
:10061000C020C2F2000050F82100002843D1FFE7BB
:100620009DF81F2040F2C021C2F20001012041F8D4
:100630002200FFE7FFE70A980999089A002304932C
:1006400000F0B0F9049B06909DF81F0006996A46D9
:100650009360536013601A4600F0E0FD8DF81700B8
:100660009DF8170060B9FFE740F2AD20C2F200002C
:100670000078012803D1FFE700F06EFDFFE70DE0F1
:10068000FFE7FFE79DF81F2040F2C021C2F2000102
:10069000002041F82200FFE7FFE7FFE79DF8170081
:1006A0008DF82F0005E0FFE7FFE728208DF82F00E9
:1006B000FFE79DF82F000CB080BD0000B0B58CB0F6
:1006C0008C46864614981399129911991099CDF871
:1006D00028E0CDF824C008928DF81F30ADF81C102A
:1006E000ADF81A009DF81F00402804D3FFE72A2028
:1006F0008DF82F0071E0FFE7FFE740F2BC10C2F277
:100700000000007830B1FFE7FFE7FFE73C208DF8FD
:100710002F0062E09DF81F1040F2C020C2F20000DE
:1007200050F82100002852D1FFE79DF81F2040F229
:10073000C021C2F20001012041F82200FFE7FFE7DB
:1007400011981299BDF81A2000F03CFF0A980999F7
:10075000089ABDF81A3000F025F905909DF81F00A1
:100760000599119ABDF81C30DDF848C0139CBDF8FE
:100770001A50EE46CEF80850CEF80440CEF800C02D
:1007800000F04CFD8DF813009DF8130060B9FFE7F1
:1007900040F2AD20C2F200000078012803D1FFE74B
:1007A00000F0DAFCFFE70DE0FFE7FFE79DF81F2010
:1007B00040F2C021C2F20001002041F82200FFE710
:1007C000FFE7FFE79DF813008DF82F0005E0FFE736
:1007D000FFE728208DF82F00FFE79DF82F000CB0D1
:1007E000B0BD0000704700007047000084B08DF875
:1007F0000F00029101929DF80F0040280AD3FFE7F5
:100800009DF80F00FF2804D0FFE701992A20087007
:1008100048E0FFE7029820B9FFE701990C20087033
:1008200040E040F2BC10C2F20000007820B1FFE7C7
:1008300001991220087035E0FFE7FFE79DF80F00EF
:10084000FF280AD1FFE740F2B020C2F200000068A2
:1008500090F83A008DF80F00FFE79DF80F1040F276
:10086000C020C2F2000050F821000090009830B97A
:10087000FFE7FFE7FFE701994320087012E00098C7
:10088000012806D1FFE7FFE7FFE701994320087041
:1008900008E0029800994865FFE7FFE7019900200A
:1008A0000870FFE704B070477047000086B08DF80D
:1008B000160004919DF8160040280AD3FFE79DF822
:1008C0001600FF2804D0FFE72A208DF8170065E006
:1008D000FFE7049820B9FFE709208DF817005DE0D5
:1008E00004990020086004994860FFE7FFE79DF83D
:1008F0001600FF280AD1FFE740F2B020C2F2000044
:10090000006890F83A008DF81600FFE79DF8161081
:1009100040F2C020C2F2000050F82100039003987A
:1009200030B9FFE7FFE7FFE743208DF8170035E018
:100930000398012806D1FFE7FFE7FFE743208DF882
:1009400017002BE00398008AC00730B9FFE7FFE7E4
:10095000FFE745208DF8170020E000200190039864
:10096000C0680090039880680290FFE7FFE7FFE708
:100970000298011F0291006820B9FFE70198013039
:100980000190F5E701980499086000980199401AD0
:100990000499486000208DF81700FFE79DF81700C4
:1009A00006B0704785B0049003910292ADF806300E
:1009B000029800900099081F00904FF0807041F855
:1009C000040C049800990A1F009241F8040C009945
:1009D000081F00906FF0010041F8040C0099081FF7
:1009E00000904FF0123041F8040C0099081F00905D
:1009F0004FF0033041F8040C0099081F00904FF0AD
:100A0000023041F8040C0099081F00904FF00130AB
:100A100041F8040C039800990A1F009241F8040C55
:100A20000099081F00904FF0113041F8040C009914
:100A3000081F00904FF0103041F8040C0099081F77
:100A400000904FF0093041F8040C0099081F009005
:100A50004FF0083041F8040C0099081F00904FF047
:100A6000073041F8040C0099081F00904FF0063041
:100A700041F8040C0099081F00904FF0053041F830
:100A8000040C0099081F00904FF0043041F8040C4A
:100A9000009805B07047000080B584B08DF80E0056
:100AA0009DF80E003F2804D1FFE747208DF80F0086
:100AB00089E09DF80E003F280AD3FFE79DF80E005D
:100AC000FF2804D0FFE72A208DF80F007BE0FFE726
:100AD000FFE7FFE79DF80E00FF280DD1FFE740F28A
:100AE000B020C2F20000006890F83A008DF80E00C5
:100AF00001208DF80D0014E09DF80E0040F2B021A9
:100B0000C2F20001096891F83A10884204D1FFE767
:100B100001208DF80D0003E000208DF80D00FFE7A7
:100B2000FFE79DF80E1040F2C020C2F2000050F81E
:100B300021000290029830B9FFE7FFE7FFE7482065
:100B40008DF80F003FE00298012806D1FFE7FFE78C
:100B5000FFE743208DF80F0035E0029890F83C0045
:100B60008DF80700029890F83D309DF8072040F27C
:100B7000A520C2F20000815C994381549DF80710C2
:100B8000405C58B9FFE7029890F83E2040F2A4215B
:100B9000C2F20001087890430870FFE7029991F8CB
:100BA000380040F0080081F83800FFE7FFE79DF8C3
:100BB0000D00012803D1FFE700F0CEFAFFE7002087
:100BC0008DF80F00FFE79DF80F0004B080BD000016
:100BD00080B582B0019040F2BC10C2F200000078F3
:100BE00008B1FFE741E040F2BD10C2F2000000781A
:100BF00008B1FFE739E00198B8B3FFE7FFE7FFE787
:100C000040F2B020C2F20000016891F83C108DF86B
:100C10000310006890F83D309DF8032040F2A520B5
:100C2000C2F20000815C994381549DF80310405C3E
:100C300078B9FFE740F2B020C2F20000006890F8F7
:100C40003E2040F2A421C2F20001087890430870CF
:100C5000FFE7019840F2B021C2F200010968486341
:100C6000FFE7FFE700F078FAFFE702B080BD000081
:100C700080B584B040F26010C2F20000502100F054
:100C8000BFF90020ADF80E00FFE7BDF80E00032805
:100C900026D8FFE7BDF80E000130ADF80C00BDF816
:100CA0000E1040F26010C2F2000000EB0111029140
:100CB000BDF80C1000EB01100190029900200870A3
:100CC000019802994860029941F2DA70C0F600007A
:100CD000C860FFE7BDF80E000130ADF80E00D4E7A4
:100CE000BDF80E1040F26010C2F2000000EB0111DE
:100CF0000291029A00211170029A5160029A41F207
:100D0000DA71C0F60001D16040F25C11C2F200015C
:100D1000086004B080BD000080B584B040F26C0073
:100D2000C2F20000F02100F06BF90020ADF80E00D7
:100D3000FFE7BDF80E0008282AD8FFE7BDF80E002F
:100D40000130ADF80C00BDF80E0000EB400140F2A0
:100D50006C00C2F2000000EBC1010291BDF80C1062
:100D600001EB410100EBC1000190029900200870E5
:100D7000019802994860029941F2DA70C0F60000C9
:100D80004861FFE7BDF80E000130ADF80E00D0E776
:100D9000BDF80E0000EB400140F26C00C2F2000012
:100DA00000EBC1010291029A00211170029A516078
:100DB000029A41F2DA71C0F60001516140F2680115
:100DC000C2F20001086004B080BD000040F6B071BE
:100DD000C2F200010020086040F2BC11C2F2000122
:100DE000087040F2BD11C2F20001087040F6A8314F
:100DF000C2F20001087040F2AD21C2F20001087099
:100E000040F26401C2F20001086040F2B011C2F287
:100E10000001086040F2B811C2F20001086040F21F
:100E2000B411C2F20001086040F2AE21C2F200012A
:100E3000087040F6AC51C2F2000108707047000023
:100E400081B040F2A421C2F20001002008708DF8A8
:100E50000300FFE79DF8030007280FD8FFE79DF880
:100E6000032040F2A521C2F2000100208854FFE7D0
:100E70009DF8030001308DF80300EBE740F23C21C0
:100E8000C2F200010020087040F23D21C2F20001D0
:100E9000087040F2B821C2F20001086040F2B021AF
:100EA000C2F20001086001B07047000080B584B054
:100EB00040F2C030C2F200004FF4FD6100F0A0F833
:100EC00040F2C020C2F200004FF4807100F098F8A8
:100ED00000208DF80F00FFE79DF80F00142824D89C
:100EE000FFE79DF80F0001308DF80E009DF80F0010
:100EF00040F2C032C2F200025C2110FB01200290DD
:100F00009DF80E0010FB01200190019802994861A4
:100F1000029941F2DA70C0F600004865FFE79DF8DB
:100F20000F0001308DF80F00D6E79DF80F1040F24A
:100F3000C030C2F200005C2211FB02010291029A51
:100F400000215161029B41F2DA72C0F600025A653B
:100F500040F2BC22C2F20002116040F2B421C2F29F
:100F60000001086004B080BD80B588B06B460320E6
:100F700018610021D9608020986040F6AC32C2F23E
:100F8000000202F5FE7058604FF6FF70186041F2E3
:100F90000540C0F600003F230693FFF78FFB06983D
:100FA00041F2DC71C0F600010DF11F02FFF71EFCDB
:100FB00008B080BD80B588B06B4603201861002161
:100FC000D9608020986040F6B052C2F2000202F56B
:100FD000FE7058604FF6FE70186041F22940C0F66E
:100FE00000003E230693FFF769FB069841F2EA7181
:100FF000C0F600010DF11F02FFF7F8FB08B080BD3D
:1010000082B00190ADF80210FFE7BDF8020058B1C0
:10101000FFE70199481C019000200870BDF802000C
:101020000138ADF80200F0E702B0704780B582B039
:1010300040F2C410C2F200007821FFF7E1FF002067
:10104000ADF80200FFE7BDF80200032821D8FFE752
:10105000BDF8020000EB400140F2C410C2F20000F3
:1010600000EBC1010191BDF8021001EB410100EB61
:10107000C100183001994860019941F2DA70C0F658
:1010800000004861FFE7BDF802000130ADF8020042
:10109000D9E7BDF8020000EB400140F2C410C2F2F3
:1010A000000000EBC1010191019A00215160019AF9
:1010B00041F2DA71C0F60001516140F2C011C2F292
:1010C0000001086002B080BD80B584B040F24420C9
:1010D000C2F200006021FFF793FF0020ADF80E0080
:1010E000FFE7BDF80E00022821D8FFE7BDF80E008B
:1010F0000130ADF80C00BDF80E0000EB400140F2ED
:101100004420C2F2000000EBC1010291BDF80C10B6
:1011100001EB410100EBC1000190019802990860C8
:10112000FFE7BDF80E000130ADF80E00D9E7BDF8BD
:101130000E0000EB400140F24420C2F2000000EB40
:10114000C1010291029A0021116040F24021C2F2D5
:101150000001086004B080BD80B5FFE7FFE740F202
:10116000BC10C2F200000078B0BBFFE740F2BD1037
:10117000C2F20000007870BBFFE700F031F840F2E7
:101180003D20C2F20000027840F2C021C2F200010C
:1011900051F8221040F2B822C2F200021160007829
:1011A00040F23C21C2F200010978884212D0FFE7E8
:1011B00040F2B820C2F200000168086C01300864F7
:1011C00040F26401C2F20001086801300860FFF7D4
:1011D0004AF8FFE7FFE7FFE7FFE7FFE780BD000012
:1011E00081B040F2A420C2F20000017841F2D86040
:1011F000C0F60000415C8DF803109DF8031040F22A
:10120000A522C2F20002525C805C00EBC10040F2F9
:101210003D21C2F20001087001B0704780B588B06E
:1012200084460C98DDF82CE0DDF828E08DF81EC02F
:1012300006910592ADF81230ADF81000FFE7FFE718
:1012400040F2B420C2F20000006803900398002826
:1012500000F0CD80FFE70398406940F2B421C2F26C
:1012600000010860FFE7FFE70698039908609DF812
:101270001E00039981F83A0003990020019081F83B
:101280003800039981F83900039948630B99039A50
:1012900051600A99039AD1600599039A9160BDF84B
:1012A0001010039A1182BDF81210039A518203990B
:1012B00081F83F009DF81E10C908039A82F83C107F
:1012C0009DF81E1001F00701039A82F83B10039B62
:1012D00093F83C20012101FA02F283F83E20039AA0
:1012E00092F83B30994082F83D100399C861039908
:1012F0000862039948620399C86203998862039956
:10130000086403998864039948640399C86403993D
:101310000865039A41F2DA71C0F6000151658DF853
:101320000B00FFE79DF80B0070B9FFE703989DF8ED
:101330000B1000EB810100208865FFE79DF80B0092
:1013400001308DF80B00EDE70398FFF73DF9FFE75B
:10135000FFE703989DF81E2040F2C021C2F2000171
:1013600041F82200FFE7FFE70398FFF73BFAFFE7AA
:10137000FFE740F2BC20C2F200000168039A51610D
:10138000039A00219161006840B1FFE7039840F2A1
:10139000BC21C2F2000109688861FFE7039840F2AE
:1013A000BC21C2F200010860039890F83E2040F290
:1013B000A421C2F20001087810430870039890F845
:1013C0003C2090F83D3040F2A521C2F20001885C3B
:1013D0001843885440F6A831C2F200010878013061
:1013E0000870FFE7FFE700208DF81F0005E0FFE72A
:1013F000FFE742208DF81F00FFE79DF81F0008B0AF
:1014000080BD000080B582B00190FFE7FFE7FFE7F5
:1014100040F2B011C2F20001086801300860FFE735
:10142000FFE7FFF7E1F9F1E780B582B00190FFE750
:1014300040F2AE20C2F20000007820B9FFE714208D
:10144000FFF7C6FBF4E740F2B410C2F200000168F7
:1014500048F21F52C5F2EB12A1FB022149090160BB
:10146000006850B9FFE740F26001C2F200010020BD
:101470000870FF20FFF710FBFFE7FFE7FFE740F2F0
:10148000B410C2F2000000686421484340F2B01179
:10149000C2F200010860FFE7FFE7FFE70120FFF766
:1014A00097FBFFE7FFE740F2B011C2F20001002016
:1014B0000860FFE7FFE70A20FFF78AFBFFE7FFE787
:1014C00040F2B010C2F20000006840F2B811C2F25F
:1014D00000010860FFE7FFE740F2B810C2F2000029
:1014E000006840F2B411C2F200010968B0FBF1F0EB
:1014F000C0F164008DF803009DF90300002808D4B2
:10150000FFE79DF8030040F26001C2F2000108709D
:1015100017E040F26001C2F200010020087040F2C2
:10152000B810C2F20000006848F21F51C5F2EB117A
:10153000A0FB0110400940F2B411C2F200010860A2
:10154000FFE7FFF7B1F900F001F8A7E780B584B035
:1015500000208DF80200FFE79DF802003F282ED8FA
:10156000FFE79DF8020001A9FFF7A0F98DF803003D
:101570009DF80300E0B9FFE79DF8021040F2C0209B
:10158000C2F2000050F821000390039878B1FFE701
:10159000039801280AD0FFE703998868CA68A0EB7E
:1015A0008200C864029803990865FFE7FFE7FFE738
:1015B000FFE79DF8020001308DF80200CCE704B08F
:1015C00080BD000083B002900191ADF80220BDF80B
:1015D0000200C007A8B1FFE7BDF80200800700289D
:1015E0000ED5FFE7FFE7019848B1FFE70198013802
:1015F00001900299081F029000200860F3E7FFE7BE
:10160000FFE703B0704700004EF68851CEF20001AC
:10161000086840F4700008607047000080B582B030
:101620000190FEF783FEFEF795FEFFE7FEE7000060
:1016300080B582B0002000900190FEF77DFF0099F8
:1016400040F6B470C2F2000000F5FE7241F21D6077
:10165000C0F600000A23FEF7B9FFFEF78BFFFFE795
:10166000FEE7F1EE100A4FF6FF71C0F2C03120EA3A
:10167000010040F04070E1EE100A7047470F010092
:101680007856341201000A00010001001800F00031
:101690000100100005000100140002003F000100DD
:1016A000010005000100180078000100040001009D
:1016B0000400180008000100040040005C00010064
:1016C000010001008000160001000100010001007E
:1016D0008000010064000100000001000200010020
:1016E00003000100020001000400010002000100EB
:1016F00003000100020001000500010002000100DA
:1017000003000100020001000400010002000100CA
:1017100003000100020001000600010002000100B8
:1017200003000100020001000400010002000100AA
:101730000300010002000100050001000200010099
:10174000030001000200010004000100020001008A
:101750000300010002000100070001000200010077
:10176000030001000200010004000100020001006A
:101770000300010002000100050001000200010059
:10178000030001000200010004000100020001004A
:101790000300010002000100060001000200010038
:1017A000030001000200010004000100020001002A
:1017B0000300010002000100050001000200010019
:1017C000030001000200010004000100020001000A
:1017D000030001000200010074723F0075432F4FA7
:1017E000532D49492049646C650075432F4F532D93
:1017F0004949205374617400081800080000002053
:08180000B8170000FC0100080C
:040000050800019559
:00000001FF
